{
  "contractName": "DecentMail",
  "abi": [
    {
      "anonymous": false,
      "inputs": [
        {
          "indexed": true,
          "internalType": "address",
          "name": "from",
          "type": "address"
        },
        {
          "indexed": false,
          "internalType": "string",
          "name": "email",
          "type": "string"
        }
      ],
      "name": "registerUserEvent",
      "type": "event"
    },
    {
      "anonymous": false,
      "inputs": [
        {
          "indexed": true,
          "internalType": "address",
          "name": "from",
          "type": "address"
        },
        {
          "indexed": true,
          "internalType": "address",
          "name": "to",
          "type": "address"
        },
        {
          "indexed": false,
          "internalType": "string",
          "name": "_hash",
          "type": "string"
        },
        {
          "indexed": false,
          "internalType": "string",
          "name": "_key",
          "type": "string"
        }
      ],
      "name": "sendMessageEvent",
      "type": "event"
    },
    {
      "constant": true,
      "inputs": [
        {
          "internalType": "string",
          "name": "email",
          "type": "string"
        }
      ],
      "name": "checkRegistration",
      "outputs": [
        {
          "internalType": "bool",
          "name": "",
          "type": "bool"
        }
      ],
      "payable": false,
      "stateMutability": "view",
      "type": "function"
    },
    {
      "constant": true,
      "inputs": [
        {
          "internalType": "address",
          "name": "user",
          "type": "address"
        }
      ],
      "name": "getMail",
      "outputs": [
        {
          "internalType": "string",
          "name": "",
          "type": "string"
        }
      ],
      "payable": false,
      "stateMutability": "view",
      "type": "function"
    },
    {
      "constant": true,
      "inputs": [
        {
          "internalType": "string",
          "name": "email",
          "type": "string"
        }
      ],
      "name": "getAddress",
      "outputs": [
        {
          "internalType": "address",
          "name": "",
          "type": "address"
        }
      ],
      "payable": false,
      "stateMutability": "view",
      "type": "function"
    },
    {
      "constant": false,
      "inputs": [
        {
          "internalType": "string",
          "name": "email",
          "type": "string"
        }
      ],
      "name": "registerUser",
      "outputs": [],
      "payable": false,
      "stateMutability": "nonpayable",
      "type": "function"
    },
    {
      "constant": true,
      "inputs": [],
      "name": "getContractProperties",
      "outputs": [
        {
          "internalType": "address",
          "name": "",
          "type": "address"
        },
        {
          "internalType": "address[]",
          "name": "",
          "type": "address[]"
        }
      ],
      "payable": false,
      "stateMutability": "view",
      "type": "function"
    },
    {
      "constant": false,
      "inputs": [
        {
          "internalType": "string",
          "name": "_receiver",
          "type": "string"
        },
        {
          "internalType": "string",
          "name": "_subject",
          "type": "string"
        },
        {
          "internalType": "uint256",
          "name": "_message",
          "type": "uint256"
        },
        {
          "internalType": "string",
          "name": "_hash",
          "type": "string"
        },
        {
          "internalType": "string",
          "name": "_key",
          "type": "string"
        },
        {
          "internalType": "string",
          "name": "_filename",
          "type": "string"
        }
      ],
      "name": "sendMessage",
      "outputs": [],
      "payable": false,
      "stateMutability": "nonpayable",
      "type": "function"
    },
    {
      "constant": true,
      "inputs": [
        {
          "internalType": "uint256",
          "name": "index",
          "type": "uint256"
        }
      ],
      "name": "receiveMessages",
      "outputs": [
        {
          "internalType": "string",
          "name": "",
          "type": "string"
        },
        {
          "internalType": "string",
          "name": "",
          "type": "string"
        },
        {
          "internalType": "uint256",
          "name": "",
          "type": "uint256"
        },
        {
          "internalType": "string",
          "name": "",
          "type": "string"
        },
        {
          "internalType": "string",
          "name": "",
          "type": "string"
        },
        {
          "internalType": "uint256",
          "name": "",
          "type": "uint256"
        },
        {
          "internalType": "string",
          "name": "",
          "type": "string"
        }
      ],
      "payable": false,
      "stateMutability": "view",
      "type": "function"
    },
    {
      "constant": true,
      "inputs": [
        {
          "internalType": "uint256",
          "name": "index",
          "type": "uint256"
        }
      ],
      "name": "sentMessages",
      "outputs": [
        {
          "internalType": "string",
          "name": "",
          "type": "string"
        },
        {
          "internalType": "string",
          "name": "",
          "type": "string"
        },
        {
          "internalType": "uint256",
          "name": "",
          "type": "uint256"
        },
        {
          "internalType": "string",
          "name": "",
          "type": "string"
        },
        {
          "internalType": "string",
          "name": "",
          "type": "string"
        },
        {
          "internalType": "uint256",
          "name": "",
          "type": "uint256"
        },
        {
          "internalType": "string",
          "name": "",
          "type": "string"
        }
      ],
      "payable": false,
      "stateMutability": "view",
      "type": "function"
    },
    {
      "constant": true,
      "inputs": [],
      "name": "getMyInboxSize",
      "outputs": [
        {
          "internalType": "uint256",
          "name": "",
          "type": "uint256"
        }
      ],
      "payable": false,
      "stateMutability": "view",
      "type": "function"
    },
    {
      "constant": true,
      "inputs": [],
      "name": "getMySentSize",
      "outputs": [
        {
          "internalType": "uint256",
          "name": "",
          "type": "uint256"
        }
      ],
      "payable": false,
      "stateMutability": "view",
      "type": "function"
    }
  ],
  "bytecode": "0x608060405234801561001057600080fd5b506128b7806100206000396000f3fe608060405234801561001057600080fd5b506004361061009e5760003560e01c8063a544f67f11610066578063a544f67f14610794578063a6e34bb9146107b2578063bc294d7d1461086f578063bf40fac114610ad4578063e131378714610bcf5761009e565b80630a417e1f146100a35780636e9a215e146100c1578063704f1b94146101535780637749a3b41461020e57806389d45b911461052f575b600080fd5b6100ab610ca2565b6040518082815260200191505060405180910390f35b6100c9610cec565b604051808373ffffffffffffffffffffffffffffffffffffffff1673ffffffffffffffffffffffffffffffffffffffff16815260200180602001828103825283818151815260200191508051906020019060200280838360005b8381101561013e578082015181840152602081019050610123565b50505050905001935050505060405180910390f35b61020c6004803603602081101561016957600080fd5b810190808035906020019064010000000081111561018657600080fd5b82018360208201111561019857600080fd5b803590602001918460018302840111640100000000831117156101ba57600080fd5b91908080601f016020809104026020016040519081016040528093929190818152602001838380828437600081840152601f19601f820116905080830192505050505050509192919290505050610dab565b005b61052d600480360360c081101561022457600080fd5b810190808035906020019064010000000081111561024157600080fd5b82018360208201111561025357600080fd5b8035906020019184600183028401116401000000008311171561027557600080fd5b91908080601f016020809104026020016040519081016040528093929190818152602001838380828437600081840152601f19601f820116905080830192505050505050509192919290803590602001906401000000008111156102d857600080fd5b8201836020820111156102ea57600080fd5b8035906020019184600183028401116401000000008311171561030c57600080fd5b91908080601f016020809104026020016040519081016040528093929190818152602001838380828437600081840152601f19601f820116905080830192505050505050509192919290803590602001909291908035906020019064010000000081111561037957600080fd5b82018360208201111561038b57600080fd5b803590602001918460018302840111640100000000831117156103ad57600080fd5b91908080601f016020809104026020016040519081016040528093929190818152602001838380828437600081840152601f19601f8201169050808301925050505050505091929192908035906020019064010000000081111561041057600080fd5b82018360208201111561042257600080fd5b8035906020019184600183028401116401000000008311171561044457600080fd5b91908080601f016020809104026020016040519081016040528093929190818152602001838380828437600081840152601f19601f820116905080830192505050505050509192919290803590602001906401000000008111156104a757600080fd5b8201836020820111156104b957600080fd5b803590602001918460018302840111640100000000831117156104db57600080fd5b91908080601f016020809104026020016040519081016040528093929190818152602001838380828437600081840152601f19601f8201169050808301925050505050505091929192905050506112ae565b005b61055b6004803603602081101561054557600080fd5b81019080803590602001909291905050506119bd565b60405180806020018060200188815260200180602001806020018781526020018060200186810386528d818151815260200191508051906020019080838360005b838110156105b757808201518184015260208101905061059c565b50505050905090810190601f1680156105e45780820380516001836020036101000a031916815260200191505b5086810385528c818151815260200191508051906020019080838360005b8381101561061d578082015181840152602081019050610602565b50505050905090810190601f16801561064a5780820380516001836020036101000a031916815260200191505b5086810384528a818151815260200191508051906020019080838360005b83811015610683578082015181840152602081019050610668565b50505050905090810190601f1680156106b05780820380516001836020036101000a031916815260200191505b50868103835289818151815260200191508051906020019080838360005b838110156106e95780820151818401526020810190506106ce565b50505050905090810190601f1680156107165780820380516001836020036101000a031916815260200191505b50868103825287818151815260200191508051906020019080838360005b8381101561074f578082015181840152602081019050610734565b50505050905090810190601f16801561077c5780820380516001836020036101000a031916815260200191505b509c5050505050505050505050505060405180910390f35b61079c611ddf565b6040518082815260200191505060405180910390f35b6107f4600480360360208110156107c857600080fd5b81019080803573ffffffffffffffffffffffffffffffffffffffff169060200190929190505050611e29565b6040518080602001828103825283818151815260200191508051906020019080838360005b83811015610834578082015181840152602081019050610819565b50505050905090810190601f1680156108615780820380516001836020036101000a031916815260200191505b509250505060405180910390f35b61089b6004803603602081101561088557600080fd5b8101908080359060200190929190505050611f6b565b60405180806020018060200188815260200180602001806020018781526020018060200186810386528d818151815260200191508051906020019080838360005b838110156108f75780820151818401526020810190506108dc565b50505050905090810190601f1680156109245780820380516001836020036101000a031916815260200191505b5086810385528c818151815260200191508051906020019080838360005b8381101561095d578082015181840152602081019050610942565b50505050905090810190601f16801561098a5780820380516001836020036101000a031916815260200191505b5086810384528a818151815260200191508051906020019080838360005b838110156109c35780820151818401526020810190506109a8565b50505050905090810190601f1680156109f05780820380516001836020036101000a031916815260200191505b50868103835289818151815260200191508051906020019080838360005b83811015610a29578082015181840152602081019050610a0e565b50505050905090810190601f168015610a565780820380516001836020036101000a031916815260200191505b50868103825287818151815260200191508051906020019080838360005b83811015610a8f578082015181840152602081019050610a74565b50505050905090810190601f168015610abc5780820380516001836020036101000a031916815260200191505b509c5050505050505050505050505060405180910390f35b610b8d60048036036020811015610aea57600080fd5b8101908080359060200190640100000000811115610b0757600080fd5b820183602082011115610b1957600080fd5b80359060200191846001830284011164010000000083111715610b3b57600080fd5b91908080601f016020809104026020016040519081016040528093929190818152602001838380828437600081840152601f19601f82011690508083019250505050505050919291929050505061238d565b604051808273ffffffffffffffffffffffffffffffffffffffff1673ffffffffffffffffffffffffffffffffffffffff16815260200191505060405180910390f35b610c8860048036036020811015610be557600080fd5b8101908080359060200190640100000000811115610c0257600080fd5b820183602082011115610c1457600080fd5b80359060200191846001830284011164010000000083111715610c3657600080fd5b91908080601f016020809104026020016040519081016040528093929190818152602001838380828437600081840152601f19601f8201169050808301925050505050505091929192905050506124ad565b604051808215151515815260200191505060405180910390f35b6000600360003373ffffffffffffffffffffffffffffffffffffffff1673ffffffffffffffffffffffffffffffffffffffff16815260200190815260200160002060000154905090565b60006060601060000160009054906101000a900473ffffffffffffffffffffffffffffffffffffffff16601060010180805480602002602001604051908101604052809291908181526020018280548015610d9c57602002820191906000526020600020905b8160009054906101000a900473ffffffffffffffffffffffffffffffffffffffff1673ffffffffffffffffffffffffffffffffffffffff1681526020019060010190808311610d52575b50505050509050915091509091565b600015156000803373ffffffffffffffffffffffffffffffffffffffff1673ffffffffffffffffffffffffffffffffffffffff16815260200190815260200160002060000160009054906101000a900460ff16151514610e0a57600080fd5b600015156001826040518082805190602001908083835b60208310610e445780518252602082019150602081019050602083039250610e21565b6001836020036101000a038019825116818451168082178552505050505050905001915050908152602001604051809103902060000160009054906101000a900460ff16151514610e9457600080fd5b6004600260003373ffffffffffffffffffffffffffffffffffffffff1673ffffffffffffffffffffffffffffffffffffffff168152602001908152602001600020600082015481600001559050506006600360003373ffffffffffffffffffffffffffffffffffffffff1673ffffffffffffffffffffffffffffffffffffffff1681526020019081526020016000206000820154816000015590505060405180606001604052806001151581526020018281526020013373ffffffffffffffffffffffffffffffffffffffff168152506000803373ffffffffffffffffffffffffffffffffffffffff1673ffffffffffffffffffffffffffffffffffffffff16815260200190815260200160002060008201518160000160006101000a81548160ff0219169083151502179055506020820151816001019080519060200190610fde929190612665565b5060408201518160020160006101000a81548173ffffffffffffffffffffffffffffffffffffffff021916908373ffffffffffffffffffffffffffffffffffffffff1602179055509050506000803373ffffffffffffffffffffffffffffffffffffffff1673ffffffffffffffffffffffffffffffffffffffff1681526020019081526020016000206001826040518082805190602001908083835b6020831061109d578051825260208201915060208101905060208303925061107a565b6001836020036101000a03801982511681845116808217855250505050505090500191505090815260200160405180910390206000820160009054906101000a900460ff168160000160006101000a81548160ff021916908315150217905550600182018160010190805460018160011615610100020316600290046111249291906126e5565b506002820160009054906101000a900473ffffffffffffffffffffffffffffffffffffffff168160020160006101000a81548173ffffffffffffffffffffffffffffffffffffffff021916908373ffffffffffffffffffffffffffffffffffffffff16021790555090505060106001013390806001815401808255809150509060018203906000526020600020016000909192909190916101000a81548173ffffffffffffffffffffffffffffffffffffffff021916908373ffffffffffffffffffffffffffffffffffffffff160217905550503373ffffffffffffffffffffffffffffffffffffffff167fa88d010628b8e1dd759f599df85ffec5745748aadceba454c8d75075960c7ad8826040518080602001828103825283818151815260200191508051906020019080838360005b83811015611271578082015181840152602081019050611256565b50505050905090810190601f16801561129e5780820380516001836020036101000a031916815260200191505b509250505060405180910390a250565b600115156001876040518082805190602001908083835b602083106112e857805182526020820191506020810190506020830392506112c5565b6001836020036101000a038019825116818451168082178552505050505050905001915050908152602001604051809103902060000160009054906101000a900460ff1615151461133857600080fd5b826008600201908051906020019061135192919061276c565b50816008600401908051906020019061136b92919061276c565b50836008600301819055504260086005018190555033600860000160006101000a81548173ffffffffffffffffffffffffffffffffffffffff021916908373ffffffffffffffffffffffffffffffffffffffff1602179055506113cd8661238d565b600860060160006101000a81548173ffffffffffffffffffffffffffffffffffffffff021916908373ffffffffffffffffffffffffffffffffffffffff160217905550846008600101908051906020019061142992919061276c565b50806008600701908051906020019061144392919061276c565b506000600360003373ffffffffffffffffffffffffffffffffffffffff1673ffffffffffffffffffffffffffffffffffffffff16815260200190815260200160002090506008816001016000836000015481526020019081526020016000206000820160009054906101000a900473ffffffffffffffffffffffffffffffffffffffff168160000160006101000a81548173ffffffffffffffffffffffffffffffffffffffff021916908373ffffffffffffffffffffffffffffffffffffffff160217905550600182018160010190805460018160011615610100020316600290046115309291906126e5565b50600282018160020190805460018160011615610100020316600290046115589291906126e5565b50600382015481600301556004820181600401908054600181600116156101000203166002900461158a9291906126e5565b50600582015481600501556006820160009054906101000a900473ffffffffffffffffffffffffffffffffffffffff168160060160006101000a81548173ffffffffffffffffffffffffffffffffffffffff021916908373ffffffffffffffffffffffffffffffffffffffff160217905550600782018160070190805460018160011615610100020316600290046116239291906126e5565b509050508060000160008154809291906001019190505550600060026000600860060160009054906101000a900473ffffffffffffffffffffffffffffffffffffffff1673ffffffffffffffffffffffffffffffffffffffff1673ffffffffffffffffffffffffffffffffffffffff16815260200190815260200160002090506008816001016000836000015481526020019081526020016000206000820160009054906101000a900473ffffffffffffffffffffffffffffffffffffffff168160000160006101000a81548173ffffffffffffffffffffffffffffffffffffffff021916908373ffffffffffffffffffffffffffffffffffffffff1602179055506001820181600101908054600181600116156101000203166002900461174c9291906126e5565b50600282018160020190805460018160011615610100020316600290046117749291906126e5565b5060038201548160030155600482018160040190805460018160011615610100020316600290046117a69291906126e5565b50600582015481600501556006820160009054906101000a900473ffffffffffffffffffffffffffffffffffffffff168160060160006101000a81548173ffffffffffffffffffffffffffffffffffffffff021916908373ffffffffffffffffffffffffffffffffffffffff1602179055506007820181600701908054600181600116156101000203166002900461183f9291906126e5565b509050508060000160008154809291906001019190505550600860060160009054906101000a900473ffffffffffffffffffffffffffffffffffffffff1673ffffffffffffffffffffffffffffffffffffffff163373ffffffffffffffffffffffffffffffffffffffff167f4c45d9a1ab9646a61f1e9cc76437e87acfd4c2447a8e5a425155b66cd2b4434b8787604051808060200180602001838103835285818151815260200191508051906020019080838360005b838110156119115780820151818401526020810190506118f6565b50505050905090810190601f16801561193e5780820380516001836020036101000a031916815260200191505b50838103825284818151815260200191508051906020019080838360005b8381101561197757808201518184015260208101905061195c565b50505050905090810190601f1680156119a45780820380516001836020036101000a031916815260200191505b5094505050505060405180910390a35050505050505050565b60608060006060806000606060008810156119d757600080fd5b6000600260003373ffffffffffffffffffffffffffffffffffffffff1673ffffffffffffffffffffffffffffffffffffffff1681526020019081526020016000209050611a226127ec565b8160010160008b8152602001908152602001600020604051806101000160405290816000820160009054906101000a900473ffffffffffffffffffffffffffffffffffffffff1673ffffffffffffffffffffffffffffffffffffffff1673ffffffffffffffffffffffffffffffffffffffff168152602001600182018054600181600116156101000203166002900480601f016020809104026020016040519081016040528092919081815260200182805460018160011615610100020316600290048015611b325780601f10611b0757610100808354040283529160200191611b32565b820191906000526020600020905b815481529060010190602001808311611b1557829003601f168201915b50505050508152602001600282018054600181600116156101000203166002900480601f016020809104026020016040519081016040528092919081815260200182805460018160011615610100020316600290048015611bd45780601f10611ba957610100808354040283529160200191611bd4565b820191906000526020600020905b815481529060010190602001808311611bb757829003601f168201915b5050505050815260200160038201548152602001600482018054600181600116156101000203166002900480601f016020809104026020016040519081016040528092919081815260200182805460018160011615610100020316600290048015611c805780601f10611c5557610100808354040283529160200191611c80565b820191906000526020600020905b815481529060010190602001808311611c6357829003601f168201915b50505050508152602001600582015481526020016006820160009054906101000a900473ffffffffffffffffffffffffffffffffffffffff1673ffffffffffffffffffffffffffffffffffffffff1673ffffffffffffffffffffffffffffffffffffffff168152602001600782018054600181600116156101000203166002900480601f016020809104026020016040519081016040528092919081815260200182805460018160011615610100020316600290048015611d825780601f10611d5757610100808354040283529160200191611d82565b820191906000526020600020905b815481529060010190602001808311611d6557829003601f168201915b5050505050815250509050806040015181608001518260a00151611da98460000151611e29565b846020015185606001518660e0015186965085955082925080905098509850985098509850985098505050919395979092949650565b6000600260003373ffffffffffffffffffffffffffffffffffffffff1673ffffffffffffffffffffffffffffffffffffffff16815260200190815260200160002060000154905090565b6060600115156000808473ffffffffffffffffffffffffffffffffffffffff1673ffffffffffffffffffffffffffffffffffffffff16815260200190815260200160002060000160009054906101000a900460ff16151514611e8a57600080fd5b6000808373ffffffffffffffffffffffffffffffffffffffff1673ffffffffffffffffffffffffffffffffffffffff1681526020019081526020016000206001018054600181600116156101000203166002900480601f016020809104026020016040519081016040528092919081815260200182805460018160011615610100020316600290048015611f5f5780601f10611f3457610100808354040283529160200191611f5f565b820191906000526020600020905b815481529060010190602001808311611f4257829003601f168201915b50505050509050919050565b6060806000606080600060606000881015611f8557600080fd5b6000600360003373ffffffffffffffffffffffffffffffffffffffff1673ffffffffffffffffffffffffffffffffffffffff1681526020019081526020016000209050611fd06127ec565b8160010160008b8152602001908152602001600020604051806101000160405290816000820160009054906101000a900473ffffffffffffffffffffffffffffffffffffffff1673ffffffffffffffffffffffffffffffffffffffff1673ffffffffffffffffffffffffffffffffffffffff168152602001600182018054600181600116156101000203166002900480601f0160208091040260200160405190810160405280929190818152602001828054600181600116156101000203166002900480156120e05780601f106120b5576101008083540402835291602001916120e0565b820191906000526020600020905b8154815290600101906020018083116120c357829003601f168201915b50505050508152602001600282018054600181600116156101000203166002900480601f0160208091040260200160405190810160405280929190818152602001828054600181600116156101000203166002900480156121825780601f1061215757610100808354040283529160200191612182565b820191906000526020600020905b81548152906001019060200180831161216557829003601f168201915b5050505050815260200160038201548152602001600482018054600181600116156101000203166002900480601f01602080910402602001604051908101604052809291908181526020018280546001816001161561010002031660029004801561222e5780601f106122035761010080835404028352916020019161222e565b820191906000526020600020905b81548152906001019060200180831161221157829003601f168201915b50505050508152602001600582015481526020016006820160009054906101000a900473ffffffffffffffffffffffffffffffffffffffff1673ffffffffffffffffffffffffffffffffffffffff1673ffffffffffffffffffffffffffffffffffffffff168152602001600782018054600181600116156101000203166002900480601f0160208091040260200160405190810160405280929190818152602001828054600181600116156101000203166002900480156123305780601f1061230557610100808354040283529160200191612330565b820191906000526020600020905b81548152906001019060200180831161231357829003601f168201915b5050505050815250509050806040015181608001518260a001516123578460c00151611e29565b846020015185606001518660e0015186965085955082925080905098509850985098509850985098505050919395979092949650565b6000600115156001836040518082805190602001908083835b602083106123c957805182526020820191506020810190506020830392506123a6565b6001836020036101000a038019825116818451168082178552505050505050905001915050908152602001604051809103902060000160009054906101000a900460ff1615151461241957600080fd5b6001826040518082805190602001908083835b6020831061244f578051825260208201915060208101905060208303925061242c565b6001836020036101000a038019825116818451168082178552505050505050905001915050908152602001604051809103902060020160009054906101000a900473ffffffffffffffffffffffffffffffffffffffff169050919050565b6000600115156000803373ffffffffffffffffffffffffffffffffffffffff1673ffffffffffffffffffffffffffffffffffffffff16815260200190815260200160002060000160009054906101000a900460ff1615151461250e57600080fd5b600115156001836040518082805190602001908083835b602083106125485780518252602082019150602081019050602083039250612525565b6001836020036101000a038019825116818451168082178552505050505050905001915050908152602001604051809103902060000160009054906101000a900460ff1615151461259857600080fd5b3373ffffffffffffffffffffffffffffffffffffffff166001836040518082805190602001908083835b602083106125e557805182526020820191506020810190506020830392506125c2565b6001836020036101000a038019825116818451168082178552505050505050905001915050908152602001604051809103902060020160009054906101000a900473ffffffffffffffffffffffffffffffffffffffff1673ffffffffffffffffffffffffffffffffffffffff161461265c57600080fd5b60019050919050565b828054600181600116156101000203166002900490600052602060002090601f016020900481019282601f106126a657805160ff19168380011785556126d4565b828001600101855582156126d4579182015b828111156126d35782518255916020019190600101906126b8565b5b5090506126e1919061285d565b5090565b828054600181600116156101000203166002900490600052602060002090601f016020900481019282601f1061271e578054855561275b565b8280016001018555821561275b57600052602060002091601f016020900482015b8281111561275a57825482559160010191906001019061273f565b5b509050612768919061285d565b5090565b828054600181600116156101000203166002900490600052602060002090601f016020900481019282601f106127ad57805160ff19168380011785556127db565b828001600101855582156127db579182015b828111156127da5782518255916020019190600101906127bf565b5b5090506127e8919061285d565b5090565b604051806101000160405280600073ffffffffffffffffffffffffffffffffffffffff1681526020016060815260200160608152602001600081526020016060815260200160008152602001600073ffffffffffffffffffffffffffffffffffffffff168152602001606081525090565b61287f91905b8082111561287b576000816000905550600101612863565b5090565b9056fea265627a7a72315820fef4ce212cacd79b22b267a42806cb611c5a1883c704176c9f9609882237f15c64736f6c63430005100032",
  "source": "pragma solidity ^0.5.0;\ncontract DecentMail{\n  event sendMessageEvent(address indexed from, address indexed to,  string _hash,  string _key);\n  event registerUserEvent(address indexed from, string email);\n  struct Message {\n    address sender;\n    string subject;\n    string hash;\n    uint message;\n    string key;\n    uint timestamp;\n    address receiver;\n    string filename;\n  }\n  struct ContractProperties {\n    address User;\n    address[] registeredUsersAddress;\n  }\n  struct Inbox {\n    uint numReceivedMessages;\n    mapping (uint => Message) receivedMessages;\n  }\n  struct Sentbox {\n      uint numSentMessages;\n      mapping (uint => Message) sentMessages;\n  }\n  struct Member{\n      bool isRegistered;\n      string email;\n      address user;\n  }\n  mapping (address => Member) mailId;\n  mapping (string => Member) addresses;\n  mapping (address => Inbox) userInboxes;\n  mapping (address => Sentbox) userSentboxes;\n\n  Inbox newInbox;\n  Sentbox newSentbox;\n  Message newMessage;\n  ContractProperties contractProperties;\n\n  function checkRegistration(string memory email) public view returns (bool){\n        require(mailId[msg.sender].isRegistered == true);\n        require(addresses[email].isRegistered == true);\n        require(addresses[email].user == msg.sender);\n        return true;\n    }\n  function getMail(address user) public view returns (string memory){\n      require(mailId[user].isRegistered == true);\n      return mailId[user].email;\n  }\n  function getAddress(string memory email) public view returns (address){\n      require(addresses[email].isRegistered == true);\n      return addresses[email].user;\n  }\n  function registerUser(string memory email) public{\n      require(mailId[msg.sender].isRegistered == false);\n      require(addresses[email].isRegistered == false);\n \n      userInboxes[msg.sender] = newInbox;\n      userSentboxes[msg.sender] = newSentbox;\n      mailId[msg.sender]  = Member(true, email, msg.sender);\n      addresses[email] = mailId[msg.sender];\n      contractProperties.registeredUsersAddress.push(msg.sender);\n     \n      emit registerUserEvent(msg.sender, email);\n  }\n  function getContractProperties() public view returns (address, address[] memory ) {\n    return (contractProperties.User, contractProperties.registeredUsersAddress);\n  }\n  function sendMessage(string memory  _receiver,  string memory _subject, uint _message, string memory  _hash,  string memory _key, string memory _filename) public {\n    require(addresses[_receiver].isRegistered == true);\n    newMessage.hash = _hash;\n    newMessage.key = _key;\n    newMessage.message = _message;\n    newMessage.timestamp = now;\n    newMessage.sender = msg.sender;\n    newMessage.receiver = getAddress(_receiver);\n    newMessage.subject = _subject;\n    newMessage.filename = _filename;\n    Sentbox storage sendermessages = userSentboxes[msg.sender];\n    sendermessages.sentMessages[sendermessages.numSentMessages] = newMessage;\n    sendermessages.numSentMessages++;\n    Inbox storage receiversInbox = userInboxes[newMessage.receiver];\n    receiversInbox.receivedMessages[receiversInbox.numReceivedMessages] = newMessage;\n    receiversInbox.numReceivedMessages++;\n    \n    emit sendMessageEvent(msg.sender, newMessage.receiver, _hash, _key);\n  }\n  function receiveMessages(uint index) public view returns ( string memory,  string memory, uint, string memory, string memory, uint, string memory) {\n    require (index >= 0);\n    Inbox storage receiversInbox = userInboxes[msg.sender];\n    Message memory message = receiversInbox.receivedMessages[index];\n    return (message.hash, message.key, message.timestamp, getMail(message.sender), message.subject, message.message, message.filename);\n  }\n  function sentMessages(uint index) public view returns ( string memory, string memory, uint, string memory, string memory, uint, string memory) {\n    require(index >= 0);\n    Sentbox storage sendermessages = userSentboxes[msg.sender];\n    Message memory message = sendermessages.sentMessages[index];\n    return (message.hash, message.key, message.timestamp, getMail(message.receiver), message.subject, message.message, message.filename);\n  }\n  function getMyInboxSize() public view returns (uint) {\n    return ( userInboxes[msg.sender].numReceivedMessages);\n  }\n  function getMySentSize() public view returns (uint) {\n    return ( userSentboxes[msg.sender].numSentMessages);\n  }\n}",
  "sourcePath": "/home/ankita/Documents/Decentmail/contracts/DecentMail.sol",
  "compiler": {
    "name": "solc",
    "version": "0.5.16+commit.9c3226ce.Emscripten.clang"
  },
  "schemaVersion": "3.3.4",
  "updatedAt": "2021-05-26T14:12:32.072Z",
  "networkType": "ethereum",
  "devdoc": {
    "methods": {}
  },
  "userdoc": {
    "methods": {}
  }
}