{
  "contractName": "DecentMail",
  "abi": [
    {
      "anonymous": false,
      "inputs": [
        {
          "indexed": true,
          "internalType": "address",
          "name": "from",
          "type": "address"
        },
        {
          "indexed": false,
          "internalType": "string",
          "name": "email",
          "type": "string"
        }
      ],
      "name": "registerUserEvent",
      "type": "event"
    },
    {
      "anonymous": false,
      "inputs": [
        {
          "indexed": true,
          "internalType": "address",
          "name": "from",
          "type": "address"
        },
        {
          "indexed": true,
          "internalType": "address",
          "name": "to",
          "type": "address"
        },
        {
          "indexed": false,
          "internalType": "string",
          "name": "_hash",
          "type": "string"
        },
        {
          "indexed": false,
          "internalType": "string",
          "name": "_key",
          "type": "string"
        }
      ],
      "name": "sendMessageEvent",
      "type": "event"
    },
    {
      "constant": true,
      "inputs": [
        {
          "internalType": "string",
          "name": "email",
          "type": "string"
        }
      ],
      "name": "checkRegistration",
      "outputs": [
        {
          "internalType": "bool",
          "name": "",
          "type": "bool"
        }
      ],
      "payable": false,
      "stateMutability": "view",
      "type": "function"
    },
    {
      "constant": true,
      "inputs": [],
      "name": "getMail",
      "outputs": [
        {
          "internalType": "string",
          "name": "",
          "type": "string"
        }
      ],
      "payable": false,
      "stateMutability": "view",
      "type": "function"
    },
    {
      "constant": true,
      "inputs": [
        {
          "internalType": "string",
          "name": "email",
          "type": "string"
        }
      ],
      "name": "getAddress",
      "outputs": [
        {
          "internalType": "address",
          "name": "",
          "type": "address"
        }
      ],
      "payable": false,
      "stateMutability": "view",
      "type": "function"
    },
    {
      "constant": false,
      "inputs": [
        {
          "internalType": "string",
          "name": "email",
          "type": "string"
        }
      ],
      "name": "registerUser",
      "outputs": [],
      "payable": false,
      "stateMutability": "nonpayable",
      "type": "function"
    },
    {
      "constant": true,
      "inputs": [],
      "name": "getContractProperties",
      "outputs": [
        {
          "internalType": "address",
          "name": "",
          "type": "address"
        },
        {
          "internalType": "address[]",
          "name": "",
          "type": "address[]"
        }
      ],
      "payable": false,
      "stateMutability": "view",
      "type": "function"
    },
    {
      "constant": false,
      "inputs": [
        {
          "internalType": "address",
          "name": "_receiver",
          "type": "address"
        },
        {
          "internalType": "string",
          "name": "_hash",
          "type": "string"
        },
        {
          "internalType": "string",
          "name": "_key",
          "type": "string"
        }
      ],
      "name": "sendMessage",
      "outputs": [],
      "payable": false,
      "stateMutability": "nonpayable",
      "type": "function"
    },
    {
      "constant": true,
      "inputs": [
        {
          "internalType": "uint256",
          "name": "index",
          "type": "uint256"
        }
      ],
      "name": "receiveMessages",
      "outputs": [
        {
          "internalType": "string",
          "name": "",
          "type": "string"
        },
        {
          "internalType": "string",
          "name": "",
          "type": "string"
        },
        {
          "internalType": "uint256",
          "name": "",
          "type": "uint256"
        },
        {
          "internalType": "address",
          "name": "",
          "type": "address"
        }
      ],
      "payable": false,
      "stateMutability": "view",
      "type": "function"
    },
    {
      "constant": true,
      "inputs": [
        {
          "internalType": "uint256",
          "name": "index",
          "type": "uint256"
        }
      ],
      "name": "sentMessages",
      "outputs": [
        {
          "internalType": "string",
          "name": "",
          "type": "string"
        },
        {
          "internalType": "string",
          "name": "",
          "type": "string"
        },
        {
          "internalType": "uint256",
          "name": "",
          "type": "uint256"
        },
        {
          "internalType": "address",
          "name": "",
          "type": "address"
        }
      ],
      "payable": false,
      "stateMutability": "view",
      "type": "function"
    },
    {
      "constant": true,
      "inputs": [],
      "name": "getMyInboxSize",
      "outputs": [
        {
          "internalType": "uint256",
          "name": "",
          "type": "uint256"
        }
      ],
      "payable": false,
      "stateMutability": "view",
      "type": "function"
    },
    {
      "constant": true,
      "inputs": [],
      "name": "getMySentSize",
      "outputs": [
        {
          "internalType": "uint256",
          "name": "",
          "type": "uint256"
        }
      ],
      "payable": false,
      "stateMutability": "view",
      "type": "function"
    }
  ],
  "bytecode": "0x608060405234801561001057600080fd5b5061201c806100206000396000f3fe608060405234801561001057600080fd5b506004361061009e5760003560e01c8063a544f67f11610066578063a544f67f146104cd578063bc294d7d146104eb578063bf40fac114610638578063e131378714610733578063e6c649ff146108065761009e565b80630a417e1f146100a35780636e9a215e146100c15780636fb6df4314610153578063704f1b94146102c557806389d45b9114610380575b600080fd5b6100ab610889565b6040518082815260200191505060405180910390f35b6100c96108d3565b604051808373ffffffffffffffffffffffffffffffffffffffff1673ffffffffffffffffffffffffffffffffffffffff16815260200180602001828103825283818151815260200191508051906020019060200280838360005b8381101561013e578082015181840152602081019050610123565b50505050905001935050505060405180910390f35b6102c36004803603606081101561016957600080fd5b81019080803573ffffffffffffffffffffffffffffffffffffffff169060200190929190803590602001906401000000008111156101a657600080fd5b8201836020820111156101b857600080fd5b803590602001918460018302840111640100000000831117156101da57600080fd5b91908080601f016020809104026020016040519081016040528093929190818152602001838380828437600081840152601f19601f8201169050808301925050505050505091929192908035906020019064010000000081111561023d57600080fd5b82018360208201111561024f57600080fd5b8035906020019184600183028401116401000000008311171561027157600080fd5b91908080601f016020809104026020016040519081016040528093929190818152602001838380828437600081840152601f19601f820116905080830192505050505050509192919290505050610992565b005b61037e600480360360208110156102db57600080fd5b81019080803590602001906401000000008111156102f857600080fd5b82018360208201111561030a57600080fd5b8035906020019184600183028401116401000000008311171561032c57600080fd5b91908080601f016020809104026020016040519081016040528093929190818152602001838380828437600081840152601f19601f820116905080830192505050505050509192919290505050610f2f565b005b6103ac6004803603602081101561039657600080fd5b8101908080359060200190929190505050611432565b6040518080602001806020018581526020018473ffffffffffffffffffffffffffffffffffffffff1673ffffffffffffffffffffffffffffffffffffffff168152602001838103835287818151815260200191508051906020019080838360005b8381101561042857808201518184015260208101905061040d565b50505050905090810190601f1680156104555780820380516001836020036101000a031916815260200191505b50838103825286818151815260200191508051906020019080838360005b8381101561048e578082015181840152602081019050610473565b50505050905090810190601f1680156104bb5780820380516001836020036101000a031916815260200191505b50965050505050505060405180910390f35b6104d56116d8565b6040518082815260200191505060405180910390f35b6105176004803603602081101561050157600080fd5b8101908080359060200190929190505050611722565b6040518080602001806020018581526020018473ffffffffffffffffffffffffffffffffffffffff1673ffffffffffffffffffffffffffffffffffffffff168152602001838103835287818151815260200191508051906020019080838360005b83811015610593578082015181840152602081019050610578565b50505050905090810190601f1680156105c05780820380516001836020036101000a031916815260200191505b50838103825286818151815260200191508051906020019080838360005b838110156105f95780820151818401526020810190506105de565b50505050905090810190601f1680156106265780820380516001836020036101000a031916815260200191505b50965050505050505060405180910390f35b6106f16004803603602081101561064e57600080fd5b810190808035906020019064010000000081111561066b57600080fd5b82018360208201111561067d57600080fd5b8035906020019184600183028401116401000000008311171561069f57600080fd5b91908080601f016020809104026020016040519081016040528093929190818152602001838380828437600081840152601f19601f8201169050808301925050505050505091929192905050506119c8565b604051808273ffffffffffffffffffffffffffffffffffffffff1673ffffffffffffffffffffffffffffffffffffffff16815260200191505060405180910390f35b6107ec6004803603602081101561074957600080fd5b810190808035906020019064010000000081111561076657600080fd5b82018360208201111561077857600080fd5b8035906020019184600183028401116401000000008311171561079a57600080fd5b91908080601f016020809104026020016040519081016040528093929190818152602001838380828437600081840152601f19601f820116905080830192505050505050509192919290505050611ae8565b604051808215151515815260200191505060405180910390f35b61080e611ca0565b6040518080602001828103825283818151815260200191508051906020019080838360005b8381101561084e578082015181840152602081019050610833565b50505050905090810190601f16801561087b5780820380516001836020036101000a031916815260200191505b509250505060405180910390f35b6000600360003373ffffffffffffffffffffffffffffffffffffffff1673ffffffffffffffffffffffffffffffffffffffff16815260200190815260200160002060000154905090565b60006060600d60000160009054906101000a900473ffffffffffffffffffffffffffffffffffffffff16600d6001018080548060200260200160405190810160405280929190818152602001828054801561098357602002820191906000526020600020905b8160009054906101000a900473ffffffffffffffffffffffffffffffffffffffff1673ffffffffffffffffffffffffffffffffffffffff1681526020019060010190808311610939575b50505050509050915091509091565b600115156000808573ffffffffffffffffffffffffffffffffffffffff1673ffffffffffffffffffffffffffffffffffffffff16815260200190815260200160002060000160009054906101000a900460ff161515146109f157600080fd5b8160086001019080519060200190610a0a929190611de0565b508060086002019080519060200190610a24929190611de0565b504260086003018190555033600860000160006101000a81548173ffffffffffffffffffffffffffffffffffffffff021916908373ffffffffffffffffffffffffffffffffffffffff16021790555082600860040160006101000a81548173ffffffffffffffffffffffffffffffffffffffff021916908373ffffffffffffffffffffffffffffffffffffffff1602179055506000600360003373ffffffffffffffffffffffffffffffffffffffff1673ffffffffffffffffffffffffffffffffffffffff16815260200190815260200160002090506008816001016000836000015481526020019081526020016000206000820160009054906101000a900473ffffffffffffffffffffffffffffffffffffffff168160000160006101000a81548173ffffffffffffffffffffffffffffffffffffffff021916908373ffffffffffffffffffffffffffffffffffffffff16021790555060018201816001019080546001816001161561010002031660029004610ba3929190611e60565b5060028201816002019080546001816001161561010002031660029004610bcb929190611e60565b50600382015481600301556004820160009054906101000a900473ffffffffffffffffffffffffffffffffffffffff168160040160006101000a81548173ffffffffffffffffffffffffffffffffffffffff021916908373ffffffffffffffffffffffffffffffffffffffff16021790555090505080600001600081548092919060010191905055506000600260008673ffffffffffffffffffffffffffffffffffffffff1673ffffffffffffffffffffffffffffffffffffffff16815260200190815260200160002090506008816001016000836000015481526020019081526020016000206000820160009054906101000a900473ffffffffffffffffffffffffffffffffffffffff168160000160006101000a81548173ffffffffffffffffffffffffffffffffffffffff021916908373ffffffffffffffffffffffffffffffffffffffff16021790555060018201816001019080546001816001161561010002031660029004610d40929190611e60565b5060028201816002019080546001816001161561010002031660029004610d68929190611e60565b50600382015481600301556004820160009054906101000a900473ffffffffffffffffffffffffffffffffffffffff168160040160006101000a81548173ffffffffffffffffffffffffffffffffffffffff021916908373ffffffffffffffffffffffffffffffffffffffff16021790555090505080600001600081548092919060010191905055508473ffffffffffffffffffffffffffffffffffffffff163373ffffffffffffffffffffffffffffffffffffffff167f4c45d9a1ab9646a61f1e9cc76437e87acfd4c2447a8e5a425155b66cd2b4434b8686604051808060200180602001838103835285818151815260200191508051906020019080838360005b83811015610e86578082015181840152602081019050610e6b565b50505050905090810190601f168015610eb35780820380516001836020036101000a031916815260200191505b50838103825284818151815260200191508051906020019080838360005b83811015610eec578082015181840152602081019050610ed1565b50505050905090810190601f168015610f195780820380516001836020036101000a031916815260200191505b5094505050505060405180910390a35050505050565b600015156000803373ffffffffffffffffffffffffffffffffffffffff1673ffffffffffffffffffffffffffffffffffffffff16815260200190815260200160002060000160009054906101000a900460ff16151514610f8e57600080fd5b600015156001826040518082805190602001908083835b60208310610fc85780518252602082019150602081019050602083039250610fa5565b6001836020036101000a038019825116818451168082178552505050505050905001915050908152602001604051809103902060000160009054906101000a900460ff1615151461101857600080fd5b6004600260003373ffffffffffffffffffffffffffffffffffffffff1673ffffffffffffffffffffffffffffffffffffffff168152602001908152602001600020600082015481600001559050506006600360003373ffffffffffffffffffffffffffffffffffffffff1673ffffffffffffffffffffffffffffffffffffffff1681526020019081526020016000206000820154816000015590505060405180606001604052806001151581526020018281526020013373ffffffffffffffffffffffffffffffffffffffff168152506000803373ffffffffffffffffffffffffffffffffffffffff1673ffffffffffffffffffffffffffffffffffffffff16815260200190815260200160002060008201518160000160006101000a81548160ff0219169083151502179055506020820151816001019080519060200190611162929190611ee7565b5060408201518160020160006101000a81548173ffffffffffffffffffffffffffffffffffffffff021916908373ffffffffffffffffffffffffffffffffffffffff1602179055509050506000803373ffffffffffffffffffffffffffffffffffffffff1673ffffffffffffffffffffffffffffffffffffffff1681526020019081526020016000206001826040518082805190602001908083835b6020831061122157805182526020820191506020810190506020830392506111fe565b6001836020036101000a03801982511681845116808217855250505050505090500191505090815260200160405180910390206000820160009054906101000a900460ff168160000160006101000a81548160ff021916908315150217905550600182018160010190805460018160011615610100020316600290046112a8929190611e60565b506002820160009054906101000a900473ffffffffffffffffffffffffffffffffffffffff168160020160006101000a81548173ffffffffffffffffffffffffffffffffffffffff021916908373ffffffffffffffffffffffffffffffffffffffff160217905550905050600d6001013390806001815401808255809150509060018203906000526020600020016000909192909190916101000a81548173ffffffffffffffffffffffffffffffffffffffff021916908373ffffffffffffffffffffffffffffffffffffffff160217905550503373ffffffffffffffffffffffffffffffffffffffff167fa88d010628b8e1dd759f599df85ffec5745748aadceba454c8d75075960c7ad8826040518080602001828103825283818151815260200191508051906020019080838360005b838110156113f55780820151818401526020810190506113da565b50505050905090810190601f1680156114225780820380516001836020036101000a031916815260200191505b509250505060405180910390a250565b606080600080600085101561144657600080fd5b6000600260003373ffffffffffffffffffffffffffffffffffffffff1673ffffffffffffffffffffffffffffffffffffffff1681526020019081526020016000209050611491611f67565b8160010160008881526020019081526020016000206040518060a00160405290816000820160009054906101000a900473ffffffffffffffffffffffffffffffffffffffff1673ffffffffffffffffffffffffffffffffffffffff1673ffffffffffffffffffffffffffffffffffffffff168152602001600182018054600181600116156101000203166002900480601f0160208091040260200160405190810160405280929190818152602001828054600181600116156101000203166002900480156115a05780601f10611575576101008083540402835291602001916115a0565b820191906000526020600020905b81548152906001019060200180831161158357829003601f168201915b50505050508152602001600282018054600181600116156101000203166002900480601f0160208091040260200160405190810160405280929190818152602001828054600181600116156101000203166002900480156116425780601f1061161757610100808354040283529160200191611642565b820191906000526020600020905b81548152906001019060200180831161162557829003601f168201915b50505050508152602001600382015481526020016004820160009054906101000a900473ffffffffffffffffffffffffffffffffffffffff1673ffffffffffffffffffffffffffffffffffffffff1673ffffffffffffffffffffffffffffffffffffffff168152505090508060200151816040015182606001518360000151839350829250955095509550955050509193509193565b6000600260003373ffffffffffffffffffffffffffffffffffffffff1673ffffffffffffffffffffffffffffffffffffffff16815260200190815260200160002060000154905090565b606080600080600085101561173657600080fd5b6000600360003373ffffffffffffffffffffffffffffffffffffffff1673ffffffffffffffffffffffffffffffffffffffff1681526020019081526020016000209050611781611f67565b8160010160008881526020019081526020016000206040518060a00160405290816000820160009054906101000a900473ffffffffffffffffffffffffffffffffffffffff1673ffffffffffffffffffffffffffffffffffffffff1673ffffffffffffffffffffffffffffffffffffffff168152602001600182018054600181600116156101000203166002900480601f0160208091040260200160405190810160405280929190818152602001828054600181600116156101000203166002900480156118905780601f1061186557610100808354040283529160200191611890565b820191906000526020600020905b81548152906001019060200180831161187357829003601f168201915b50505050508152602001600282018054600181600116156101000203166002900480601f0160208091040260200160405190810160405280929190818152602001828054600181600116156101000203166002900480156119325780601f1061190757610100808354040283529160200191611932565b820191906000526020600020905b81548152906001019060200180831161191557829003601f168201915b50505050508152602001600382015481526020016004820160009054906101000a900473ffffffffffffffffffffffffffffffffffffffff1673ffffffffffffffffffffffffffffffffffffffff1673ffffffffffffffffffffffffffffffffffffffff168152505090508060200151816040015182606001518360800151839350829250955095509550955050509193509193565b6000600115156001836040518082805190602001908083835b60208310611a0457805182526020820191506020810190506020830392506119e1565b6001836020036101000a038019825116818451168082178552505050505050905001915050908152602001604051809103902060000160009054906101000a900460ff16151514611a5457600080fd5b6001826040518082805190602001908083835b60208310611a8a5780518252602082019150602081019050602083039250611a67565b6001836020036101000a038019825116818451168082178552505050505050905001915050908152602001604051809103902060020160009054906101000a900473ffffffffffffffffffffffffffffffffffffffff169050919050565b6000600115156000803373ffffffffffffffffffffffffffffffffffffffff1673ffffffffffffffffffffffffffffffffffffffff16815260200190815260200160002060000160009054906101000a900460ff16151514611b4957600080fd5b600115156001836040518082805190602001908083835b60208310611b835780518252602082019150602081019050602083039250611b60565b6001836020036101000a038019825116818451168082178552505050505050905001915050908152602001604051809103902060000160009054906101000a900460ff16151514611bd357600080fd5b3373ffffffffffffffffffffffffffffffffffffffff166001836040518082805190602001908083835b60208310611c205780518252602082019150602081019050602083039250611bfd565b6001836020036101000a038019825116818451168082178552505050505050905001915050908152602001604051809103902060020160009054906101000a900473ffffffffffffffffffffffffffffffffffffffff1673ffffffffffffffffffffffffffffffffffffffff1614611c9757600080fd5b60019050919050565b6060600115156000803373ffffffffffffffffffffffffffffffffffffffff1673ffffffffffffffffffffffffffffffffffffffff16815260200190815260200160002060000160009054906101000a900460ff16151514611d0157600080fd5b6000803373ffffffffffffffffffffffffffffffffffffffff1673ffffffffffffffffffffffffffffffffffffffff1681526020019081526020016000206001018054600181600116156101000203166002900480601f016020809104026020016040519081016040528092919081815260200182805460018160011615610100020316600290048015611dd65780601f10611dab57610100808354040283529160200191611dd6565b820191906000526020600020905b815481529060010190602001808311611db957829003601f168201915b5050505050905090565b828054600181600116156101000203166002900490600052602060002090601f016020900481019282601f10611e2157805160ff1916838001178555611e4f565b82800160010185558215611e4f579182015b82811115611e4e578251825591602001919060010190611e33565b5b509050611e5c9190611fc2565b5090565b828054600181600116156101000203166002900490600052602060002090601f016020900481019282601f10611e995780548555611ed6565b82800160010185558215611ed657600052602060002091601f016020900482015b82811115611ed5578254825591600101919060010190611eba565b5b509050611ee39190611fc2565b5090565b828054600181600116156101000203166002900490600052602060002090601f016020900481019282601f10611f2857805160ff1916838001178555611f56565b82800160010185558215611f56579182015b82811115611f55578251825591602001919060010190611f3a565b5b509050611f639190611fc2565b5090565b6040518060a00160405280600073ffffffffffffffffffffffffffffffffffffffff168152602001606081526020016060815260200160008152602001600073ffffffffffffffffffffffffffffffffffffffff1681525090565b611fe491905b80821115611fe0576000816000905550600101611fc8565b5090565b9056fea265627a7a72315820206056fa29008d7ca1cf986b91764fdd41a60c73dc706a66aaa51430a51c042664736f6c63430005100032",
  "source": "pragma solidity ^0.5.0;\ncontract DecentMail{\n  event sendMessageEvent(address indexed from, address indexed to,  string _hash,  string _key);\n  event registerUserEvent(address indexed from, string email);\n  struct Message {\n    address sender;\n    string hash;\n    string key;\n    uint timestamp;\n    address receiver;\n  }\n  struct ContractProperties {\n    address User;\n    address[] registeredUsersAddress;\n  }\n  struct Inbox {\n    uint numReceivedMessages;\n    mapping (uint => Message) receivedMessages;\n  }\n  struct Sentbox {\n      uint numSentMessages;\n      mapping (uint => Message) sentMessages;\n  }\n  struct Member{\n      bool isRegistered;\n      string email;\n      address user;\n  }\n  mapping (address => Member) mailId;\n  mapping (string => Member) addresses;\n  mapping (address => Inbox) userInboxes;\n  mapping (address => Sentbox) userSentboxes;\n\n  Inbox newInbox;\n  Sentbox newSentbox;\n  Message newMessage;\n  ContractProperties contractProperties;\n\n  function checkRegistration(string memory email) public view returns (bool){\n        require(mailId[msg.sender].isRegistered == true);\n        require(addresses[email].isRegistered == true);\n        require(addresses[email].user == msg.sender);\n        return true;\n    }\n  function getMail() public view returns (string memory){\n      require(mailId[msg.sender].isRegistered == true);\n      return mailId[msg.sender].email;\n  }\n  function getAddress(string memory email) public view returns (address){\n      require(addresses[email].isRegistered == true);\n      return addresses[email].user;\n  }\n  function registerUser(string memory email) public{\n      require(mailId[msg.sender].isRegistered == false);\n      require(addresses[email].isRegistered == false);\n \n      userInboxes[msg.sender] = newInbox;\n      userSentboxes[msg.sender] = newSentbox;\n      mailId[msg.sender]  = Member(true, email, msg.sender);\n      addresses[email] = mailId[msg.sender];\n      contractProperties.registeredUsersAddress.push(msg.sender);\n     \n      emit registerUserEvent(msg.sender, email);\n  }\n  function getContractProperties() public view returns (address, address[] memory ) {\n    return (contractProperties.User, contractProperties.registeredUsersAddress);\n  }\n  function sendMessage(address _receiver,  string memory  _hash,  string memory _key) public {\n    require(mailId[_receiver].isRegistered == true);\n    newMessage.hash = _hash;\n    newMessage.key = _key;\n    newMessage.timestamp = now;\n    newMessage.sender = msg.sender;\n    newMessage.receiver = _receiver;\n   \n    Sentbox storage sendermessages = userSentboxes[msg.sender];\n    sendermessages.sentMessages[sendermessages.numSentMessages] = newMessage;\n    sendermessages.numSentMessages++;\n    Inbox storage receiversInbox = userInboxes[_receiver];\n    receiversInbox.receivedMessages[receiversInbox.numReceivedMessages] = newMessage;\n    receiversInbox.numReceivedMessages++;\n    \n    emit sendMessageEvent(msg.sender, _receiver, _hash, _key);\n  }\n  function receiveMessages(uint index) public view returns ( string memory,  string memory, uint, address) {\n    require (index >= 0);\n    Inbox storage receiversInbox = userInboxes[msg.sender];\n    Message memory message = receiversInbox.receivedMessages[index];\n    return (message.hash, message.key, message.timestamp, message.sender);\n  }\n  function sentMessages(uint index) public view returns ( string memory, string memory, uint, address) {\n    require(index >= 0);\n    Sentbox storage sendermessages = userSentboxes[msg.sender];\n    Message memory message = sendermessages.sentMessages[index];\n    return (message.hash, message.key, message.timestamp, message.receiver);\n  }\n  function getMyInboxSize() public view returns (uint) {\n    return ( userInboxes[msg.sender].numReceivedMessages);\n  }\n  function getMySentSize() public view returns (uint) {\n    return ( userSentboxes[msg.sender].numSentMessages);\n  }\n}",
  "sourcePath": "/home/ankita/Documents/Decentmail/contracts/DecentMail.sol",
  "compiler": {
    "name": "solc",
    "version": "0.5.16+commit.9c3226ce.Emscripten.clang"
  },
  "schemaVersion": "3.3.4",
  "updatedAt": "2021-05-11T12:47:33.870Z",
  "networkType": "ethereum",
  "devdoc": {
    "methods": {}
  },
  "userdoc": {
    "methods": {}
  }
}