{
  "contractName": "DecentMail",
  "abi": [
    {
      "anonymous": false,
      "inputs": [
        {
          "indexed": true,
          "internalType": "address",
          "name": "from",
          "type": "address"
        },
        {
          "indexed": false,
          "internalType": "string",
          "name": "email",
          "type": "string"
        }
      ],
      "name": "registerUserEvent",
      "type": "event"
    },
    {
      "anonymous": false,
      "inputs": [
        {
          "indexed": true,
          "internalType": "address",
          "name": "from",
          "type": "address"
        },
        {
          "indexed": true,
          "internalType": "address",
          "name": "to",
          "type": "address"
        },
        {
          "indexed": false,
          "internalType": "string",
          "name": "_hash",
          "type": "string"
        },
        {
          "indexed": false,
          "internalType": "string",
          "name": "_key",
          "type": "string"
        }
      ],
      "name": "sendMessageEvent",
      "type": "event"
    },
    {
      "constant": true,
      "inputs": [
        {
          "internalType": "string",
          "name": "email",
          "type": "string"
        }
      ],
      "name": "checkRegistration",
      "outputs": [
        {
          "internalType": "bool",
          "name": "",
          "type": "bool"
        }
      ],
      "payable": false,
      "stateMutability": "view",
      "type": "function"
    },
    {
      "constant": true,
      "inputs": [
        {
          "internalType": "address",
          "name": "user",
          "type": "address"
        }
      ],
      "name": "getMail",
      "outputs": [
        {
          "internalType": "string",
          "name": "",
          "type": "string"
        }
      ],
      "payable": false,
      "stateMutability": "view",
      "type": "function"
    },
    {
      "constant": true,
      "inputs": [
        {
          "internalType": "string",
          "name": "email",
          "type": "string"
        }
      ],
      "name": "getAddress",
      "outputs": [
        {
          "internalType": "address",
          "name": "",
          "type": "address"
        }
      ],
      "payable": false,
      "stateMutability": "view",
      "type": "function"
    },
    {
      "constant": false,
      "inputs": [
        {
          "internalType": "string",
          "name": "email",
          "type": "string"
        }
      ],
      "name": "registerUser",
      "outputs": [],
      "payable": false,
      "stateMutability": "nonpayable",
      "type": "function"
    },
    {
      "constant": true,
      "inputs": [],
      "name": "getContractProperties",
      "outputs": [
        {
          "internalType": "address",
          "name": "",
          "type": "address"
        },
        {
          "internalType": "address[]",
          "name": "",
          "type": "address[]"
        }
      ],
      "payable": false,
      "stateMutability": "view",
      "type": "function"
    },
    {
      "constant": false,
      "inputs": [
        {
          "internalType": "string",
          "name": "_receiver",
          "type": "string"
        },
        {
          "internalType": "string",
          "name": "_subject",
          "type": "string"
        },
        {
          "internalType": "string",
          "name": "_hash",
          "type": "string"
        },
        {
          "internalType": "string",
          "name": "_key",
          "type": "string"
        }
      ],
      "name": "sendMessage",
      "outputs": [],
      "payable": false,
      "stateMutability": "nonpayable",
      "type": "function"
    },
    {
      "constant": true,
      "inputs": [
        {
          "internalType": "uint256",
          "name": "index",
          "type": "uint256"
        }
      ],
      "name": "receiveMessages",
      "outputs": [
        {
          "internalType": "string",
          "name": "",
          "type": "string"
        },
        {
          "internalType": "string",
          "name": "",
          "type": "string"
        },
        {
          "internalType": "uint256",
          "name": "",
          "type": "uint256"
        },
        {
          "internalType": "string",
          "name": "",
          "type": "string"
        },
        {
          "internalType": "string",
          "name": "",
          "type": "string"
        }
      ],
      "payable": false,
      "stateMutability": "view",
      "type": "function"
    },
    {
      "constant": true,
      "inputs": [
        {
          "internalType": "uint256",
          "name": "index",
          "type": "uint256"
        }
      ],
      "name": "sentMessages",
      "outputs": [
        {
          "internalType": "string",
          "name": "",
          "type": "string"
        },
        {
          "internalType": "string",
          "name": "",
          "type": "string"
        },
        {
          "internalType": "uint256",
          "name": "",
          "type": "uint256"
        },
        {
          "internalType": "address",
          "name": "",
          "type": "address"
        },
        {
          "internalType": "string",
          "name": "",
          "type": "string"
        }
      ],
      "payable": false,
      "stateMutability": "view",
      "type": "function"
    },
    {
      "constant": true,
      "inputs": [],
      "name": "getMyInboxSize",
      "outputs": [
        {
          "internalType": "uint256",
          "name": "",
          "type": "uint256"
        }
      ],
      "payable": false,
      "stateMutability": "view",
      "type": "function"
    },
    {
      "constant": true,
      "inputs": [],
      "name": "getMySentSize",
      "outputs": [
        {
          "internalType": "uint256",
          "name": "",
          "type": "uint256"
        }
      ],
      "payable": false,
      "stateMutability": "view",
      "type": "function"
    }
  ],
  "bytecode": "0x608060405234801561001057600080fd5b506124ce806100206000396000f3fe608060405234801561001057600080fd5b506004361061009e5760003560e01c8063a544f67f11610066578063a544f67f14610680578063a6e34bb91461069e578063bc294d7d1461075b578063bf40fac114610914578063e131378714610a0f5761009e565b80630a417e1f146100a35780635efe5a72146100c15780636e9a215e14610341578063704f1b94146103d357806389d45b911461048e575b600080fd5b6100ab610ae2565b6040518082815260200191505060405180910390f35b61033f600480360360808110156100d757600080fd5b81019080803590602001906401000000008111156100f457600080fd5b82018360208201111561010657600080fd5b8035906020019184600183028401116401000000008311171561012857600080fd5b91908080601f016020809104026020016040519081016040528093929190818152602001838380828437600081840152601f19601f8201169050808301925050505050505091929192908035906020019064010000000081111561018b57600080fd5b82018360208201111561019d57600080fd5b803590602001918460018302840111640100000000831117156101bf57600080fd5b91908080601f016020809104026020016040519081016040528093929190818152602001838380828437600081840152601f19601f8201169050808301925050505050505091929192908035906020019064010000000081111561022257600080fd5b82018360208201111561023457600080fd5b8035906020019184600183028401116401000000008311171561025657600080fd5b91908080601f016020809104026020016040519081016040528093929190818152602001838380828437600081840152601f19601f820116905080830192505050505050509192919290803590602001906401000000008111156102b957600080fd5b8201836020820111156102cb57600080fd5b803590602001918460018302840111640100000000831117156102ed57600080fd5b91908080601f016020809104026020016040519081016040528093929190818152602001838380828437600081840152601f19601f820116905080830192505050505050509192919290505050610b2c565b005b6103496111b1565b604051808373ffffffffffffffffffffffffffffffffffffffff1673ffffffffffffffffffffffffffffffffffffffff16815260200180602001828103825283818151815260200191508051906020019060200280838360005b838110156103be5780820151818401526020810190506103a3565b50505050905001935050505060405180910390f35b61048c600480360360208110156103e957600080fd5b810190808035906020019064010000000081111561040657600080fd5b82018360208201111561041857600080fd5b8035906020019184600183028401116401000000008311171561043a57600080fd5b91908080601f016020809104026020016040519081016040528093929190818152602001838380828437600081840152601f19601f820116905080830192505050505050509192919290505050611270565b005b6104ba600480360360208110156104a457600080fd5b8101908080359060200190929190505050611773565b604051808060200180602001868152602001806020018060200185810385528a818151815260200191508051906020019080838360005b8381101561050c5780820151818401526020810190506104f1565b50505050905090810190601f1680156105395780820380516001836020036101000a031916815260200191505b50858103845289818151815260200191508051906020019080838360005b83811015610572578082015181840152602081019050610557565b50505050905090810190601f16801561059f5780820380516001836020036101000a031916815260200191505b50858103835287818151815260200191508051906020019080838360005b838110156105d85780820151818401526020810190506105bd565b50505050905090810190601f1680156106055780820380516001836020036101000a031916815260200191505b50858103825286818151815260200191508051906020019080838360005b8381101561063e578082015181840152602081019050610623565b50505050905090810190601f16801561066b5780820380516001836020036101000a031916815260200191505b50995050505050505050505060405180910390f35b610688611ad1565b6040518082815260200191505060405180910390f35b6106e0600480360360208110156106b457600080fd5b81019080803573ffffffffffffffffffffffffffffffffffffffff169060200190929190505050611b1b565b6040518080602001828103825283818151815260200191508051906020019080838360005b83811015610720578082015181840152602081019050610705565b50505050905090810190601f16801561074d5780820380516001836020036101000a031916815260200191505b509250505060405180910390f35b6107876004803603602081101561077157600080fd5b8101908080359060200190929190505050611c5d565b6040518080602001806020018681526020018573ffffffffffffffffffffffffffffffffffffffff1673ffffffffffffffffffffffffffffffffffffffff16815260200180602001848103845289818151815260200191508051906020019080838360005b838110156108075780820151818401526020810190506107ec565b50505050905090810190601f1680156108345780820380516001836020036101000a031916815260200191505b50848103835288818151815260200191508051906020019080838360005b8381101561086d578082015181840152602081019050610852565b50505050905090810190601f16801561089a5780820380516001836020036101000a031916815260200191505b50848103825285818151815260200191508051906020019080838360005b838110156108d35780820151818401526020810190506108b8565b50505050905090810190601f1680156109005780820380516001836020036101000a031916815260200191505b509850505050505050505060405180910390f35b6109cd6004803603602081101561092a57600080fd5b810190808035906020019064010000000081111561094757600080fd5b82018360208201111561095957600080fd5b8035906020019184600183028401116401000000008311171561097b57600080fd5b91908080601f016020809104026020016040519081016040528093929190818152602001838380828437600081840152601f19601f820116905080830192505050505050509192919290505050611fb3565b604051808273ffffffffffffffffffffffffffffffffffffffff1673ffffffffffffffffffffffffffffffffffffffff16815260200191505060405180910390f35b610ac860048036036020811015610a2557600080fd5b8101908080359060200190640100000000811115610a4257600080fd5b820183602082011115610a5457600080fd5b80359060200191846001830284011164010000000083111715610a7657600080fd5b91908080601f016020809104026020016040519081016040528093929190818152602001838380828437600081840152601f19601f8201169050808301925050505050505091929192905050506120d3565b604051808215151515815260200191505060405180910390f35b6000600360003373ffffffffffffffffffffffffffffffffffffffff1673ffffffffffffffffffffffffffffffffffffffff16815260200190815260200160002060000154905090565b600115156001856040518082805190602001908083835b60208310610b665780518252602082019150602081019050602083039250610b43565b6001836020036101000a038019825116818451168082178552505050505050905001915050908152602001604051809103902060000160009054906101000a900460ff16151514610bb657600080fd5b8160086002019080519060200190610bcf92919061228b565b508060086003019080519060200190610be992919061228b565b504260086004018190555033600860000160006101000a81548173ffffffffffffffffffffffffffffffffffffffff021916908373ffffffffffffffffffffffffffffffffffffffff160217905550610c4184611fb3565b600860050160006101000a81548173ffffffffffffffffffffffffffffffffffffffff021916908373ffffffffffffffffffffffffffffffffffffffff1602179055508260086001019080519060200190610c9d92919061228b565b506000600360003373ffffffffffffffffffffffffffffffffffffffff1673ffffffffffffffffffffffffffffffffffffffff16815260200190815260200160002090506008816001016000836000015481526020019081526020016000206000820160009054906101000a900473ffffffffffffffffffffffffffffffffffffffff168160000160006101000a81548173ffffffffffffffffffffffffffffffffffffffff021916908373ffffffffffffffffffffffffffffffffffffffff16021790555060018201816001019080546001816001161561010002031660029004610d8a92919061230b565b5060028201816002019080546001816001161561010002031660029004610db292919061230b565b5060038201816003019080546001816001161561010002031660029004610dda92919061230b565b50600482015481600401556005820160009054906101000a900473ffffffffffffffffffffffffffffffffffffffff168160050160006101000a81548173ffffffffffffffffffffffffffffffffffffffff021916908373ffffffffffffffffffffffffffffffffffffffff1602179055509050508060000160008154809291906001019190505550600060026000600860050160009054906101000a900473ffffffffffffffffffffffffffffffffffffffff1673ffffffffffffffffffffffffffffffffffffffff1673ffffffffffffffffffffffffffffffffffffffff16815260200190815260200160002090506008816001016000836000015481526020019081526020016000206000820160009054906101000a900473ffffffffffffffffffffffffffffffffffffffff168160000160006101000a81548173ffffffffffffffffffffffffffffffffffffffff021916908373ffffffffffffffffffffffffffffffffffffffff16021790555060018201816001019080546001816001161561010002031660029004610f7492919061230b565b5060028201816002019080546001816001161561010002031660029004610f9c92919061230b565b5060038201816003019080546001816001161561010002031660029004610fc492919061230b565b50600482015481600401556005820160009054906101000a900473ffffffffffffffffffffffffffffffffffffffff168160050160006101000a81548173ffffffffffffffffffffffffffffffffffffffff021916908373ffffffffffffffffffffffffffffffffffffffff1602179055509050508060000160008154809291906001019190505550600860050160009054906101000a900473ffffffffffffffffffffffffffffffffffffffff1673ffffffffffffffffffffffffffffffffffffffff163373ffffffffffffffffffffffffffffffffffffffff167f4c45d9a1ab9646a61f1e9cc76437e87acfd4c2447a8e5a425155b66cd2b4434b8686604051808060200180602001838103835285818151815260200191508051906020019080838360005b838110156111075780820151818401526020810190506110ec565b50505050905090810190601f1680156111345780820380516001836020036101000a031916815260200191505b50838103825284818151815260200191508051906020019080838360005b8381101561116d578082015181840152602081019050611152565b50505050905090810190601f16801561119a5780820380516001836020036101000a031916815260200191505b5094505050505060405180910390a3505050505050565b60006060600e60000160009054906101000a900473ffffffffffffffffffffffffffffffffffffffff16600e6001018080548060200260200160405190810160405280929190818152602001828054801561126157602002820191906000526020600020905b8160009054906101000a900473ffffffffffffffffffffffffffffffffffffffff1673ffffffffffffffffffffffffffffffffffffffff1681526020019060010190808311611217575b50505050509050915091509091565b600015156000803373ffffffffffffffffffffffffffffffffffffffff1673ffffffffffffffffffffffffffffffffffffffff16815260200190815260200160002060000160009054906101000a900460ff161515146112cf57600080fd5b600015156001826040518082805190602001908083835b6020831061130957805182526020820191506020810190506020830392506112e6565b6001836020036101000a038019825116818451168082178552505050505050905001915050908152602001604051809103902060000160009054906101000a900460ff1615151461135957600080fd5b6004600260003373ffffffffffffffffffffffffffffffffffffffff1673ffffffffffffffffffffffffffffffffffffffff168152602001908152602001600020600082015481600001559050506006600360003373ffffffffffffffffffffffffffffffffffffffff1673ffffffffffffffffffffffffffffffffffffffff1681526020019081526020016000206000820154816000015590505060405180606001604052806001151581526020018281526020013373ffffffffffffffffffffffffffffffffffffffff168152506000803373ffffffffffffffffffffffffffffffffffffffff1673ffffffffffffffffffffffffffffffffffffffff16815260200190815260200160002060008201518160000160006101000a81548160ff02191690831515021790555060208201518160010190805190602001906114a3929190612392565b5060408201518160020160006101000a81548173ffffffffffffffffffffffffffffffffffffffff021916908373ffffffffffffffffffffffffffffffffffffffff1602179055509050506000803373ffffffffffffffffffffffffffffffffffffffff1673ffffffffffffffffffffffffffffffffffffffff1681526020019081526020016000206001826040518082805190602001908083835b60208310611562578051825260208201915060208101905060208303925061153f565b6001836020036101000a03801982511681845116808217855250505050505090500191505090815260200160405180910390206000820160009054906101000a900460ff168160000160006101000a81548160ff021916908315150217905550600182018160010190805460018160011615610100020316600290046115e992919061230b565b506002820160009054906101000a900473ffffffffffffffffffffffffffffffffffffffff168160020160006101000a81548173ffffffffffffffffffffffffffffffffffffffff021916908373ffffffffffffffffffffffffffffffffffffffff160217905550905050600e6001013390806001815401808255809150509060018203906000526020600020016000909192909190916101000a81548173ffffffffffffffffffffffffffffffffffffffff021916908373ffffffffffffffffffffffffffffffffffffffff160217905550503373ffffffffffffffffffffffffffffffffffffffff167fa88d010628b8e1dd759f599df85ffec5745748aadceba454c8d75075960c7ad8826040518080602001828103825283818151815260200191508051906020019080838360005b8381101561173657808201518184015260208101905061171b565b50505050905090810190601f1680156117635780820380516001836020036101000a031916815260200191505b509250505060405180910390a250565b6060806000606080600086101561178957600080fd5b6000600260003373ffffffffffffffffffffffffffffffffffffffff1673ffffffffffffffffffffffffffffffffffffffff16815260200190815260200160002090506117d4612412565b8160010160008981526020019081526020016000206040518060c00160405290816000820160009054906101000a900473ffffffffffffffffffffffffffffffffffffffff1673ffffffffffffffffffffffffffffffffffffffff1673ffffffffffffffffffffffffffffffffffffffff168152602001600182018054600181600116156101000203166002900480601f0160208091040260200160405190810160405280929190818152602001828054600181600116156101000203166002900480156118e35780601f106118b8576101008083540402835291602001916118e3565b820191906000526020600020905b8154815290600101906020018083116118c657829003601f168201915b50505050508152602001600282018054600181600116156101000203166002900480601f0160208091040260200160405190810160405280929190818152602001828054600181600116156101000203166002900480156119855780601f1061195a57610100808354040283529160200191611985565b820191906000526020600020905b81548152906001019060200180831161196857829003601f168201915b50505050508152602001600382018054600181600116156101000203166002900480601f016020809104026020016040519081016040528092919081815260200182805460018160011615610100020316600290048015611a275780601f106119fc57610100808354040283529160200191611a27565b820191906000526020600020905b815481529060010190602001808311611a0a57829003601f168201915b50505050508152602001600482015481526020016005820160009054906101000a900473ffffffffffffffffffffffffffffffffffffffff1673ffffffffffffffffffffffffffffffffffffffff1673ffffffffffffffffffffffffffffffffffffffff16815250509050806040015181606001518260800151611aae8460000151611b1b565b846020015184945083935080905096509650965096509650505091939590929450565b6000600260003373ffffffffffffffffffffffffffffffffffffffff1673ffffffffffffffffffffffffffffffffffffffff16815260200190815260200160002060000154905090565b6060600115156000808473ffffffffffffffffffffffffffffffffffffffff1673ffffffffffffffffffffffffffffffffffffffff16815260200190815260200160002060000160009054906101000a900460ff16151514611b7c57600080fd5b6000808373ffffffffffffffffffffffffffffffffffffffff1673ffffffffffffffffffffffffffffffffffffffff1681526020019081526020016000206001018054600181600116156101000203166002900480601f016020809104026020016040519081016040528092919081815260200182805460018160011615610100020316600290048015611c515780601f10611c2657610100808354040283529160200191611c51565b820191906000526020600020905b815481529060010190602001808311611c3457829003601f168201915b50505050509050919050565b60608060008060606000861015611c7357600080fd5b6000600360003373ffffffffffffffffffffffffffffffffffffffff1673ffffffffffffffffffffffffffffffffffffffff1681526020019081526020016000209050611cbe612412565b8160010160008981526020019081526020016000206040518060c00160405290816000820160009054906101000a900473ffffffffffffffffffffffffffffffffffffffff1673ffffffffffffffffffffffffffffffffffffffff1673ffffffffffffffffffffffffffffffffffffffff168152602001600182018054600181600116156101000203166002900480601f016020809104026020016040519081016040528092919081815260200182805460018160011615610100020316600290048015611dcd5780601f10611da257610100808354040283529160200191611dcd565b820191906000526020600020905b815481529060010190602001808311611db057829003601f168201915b50505050508152602001600282018054600181600116156101000203166002900480601f016020809104026020016040519081016040528092919081815260200182805460018160011615610100020316600290048015611e6f5780601f10611e4457610100808354040283529160200191611e6f565b820191906000526020600020905b815481529060010190602001808311611e5257829003601f168201915b50505050508152602001600382018054600181600116156101000203166002900480601f016020809104026020016040519081016040528092919081815260200182805460018160011615610100020316600290048015611f115780601f10611ee657610100808354040283529160200191611f11565b820191906000526020600020905b815481529060010190602001808311611ef457829003601f168201915b50505050508152602001600482015481526020016005820160009054906101000a900473ffffffffffffffffffffffffffffffffffffffff1673ffffffffffffffffffffffffffffffffffffffff1673ffffffffffffffffffffffffffffffffffffffff168152505090508060400151816060015182608001518360a00151846020015184945083935080905096509650965096509650505091939590929450565b6000600115156001836040518082805190602001908083835b60208310611fef5780518252602082019150602081019050602083039250611fcc565b6001836020036101000a038019825116818451168082178552505050505050905001915050908152602001604051809103902060000160009054906101000a900460ff1615151461203f57600080fd5b6001826040518082805190602001908083835b602083106120755780518252602082019150602081019050602083039250612052565b6001836020036101000a038019825116818451168082178552505050505050905001915050908152602001604051809103902060020160009054906101000a900473ffffffffffffffffffffffffffffffffffffffff169050919050565b6000600115156000803373ffffffffffffffffffffffffffffffffffffffff1673ffffffffffffffffffffffffffffffffffffffff16815260200190815260200160002060000160009054906101000a900460ff1615151461213457600080fd5b600115156001836040518082805190602001908083835b6020831061216e578051825260208201915060208101905060208303925061214b565b6001836020036101000a038019825116818451168082178552505050505050905001915050908152602001604051809103902060000160009054906101000a900460ff161515146121be57600080fd5b3373ffffffffffffffffffffffffffffffffffffffff166001836040518082805190602001908083835b6020831061220b57805182526020820191506020810190506020830392506121e8565b6001836020036101000a038019825116818451168082178552505050505050905001915050908152602001604051809103902060020160009054906101000a900473ffffffffffffffffffffffffffffffffffffffff1673ffffffffffffffffffffffffffffffffffffffff161461228257600080fd5b60019050919050565b828054600181600116156101000203166002900490600052602060002090601f016020900481019282601f106122cc57805160ff19168380011785556122fa565b828001600101855582156122fa579182015b828111156122f95782518255916020019190600101906122de565b5b5090506123079190612474565b5090565b828054600181600116156101000203166002900490600052602060002090601f016020900481019282601f106123445780548555612381565b8280016001018555821561238157600052602060002091601f016020900482015b82811115612380578254825591600101919060010190612365565b5b50905061238e9190612474565b5090565b828054600181600116156101000203166002900490600052602060002090601f016020900481019282601f106123d357805160ff1916838001178555612401565b82800160010185558215612401579182015b828111156124005782518255916020019190600101906123e5565b5b50905061240e9190612474565b5090565b6040518060c00160405280600073ffffffffffffffffffffffffffffffffffffffff16815260200160608152602001606081526020016060815260200160008152602001600073ffffffffffffffffffffffffffffffffffffffff1681525090565b61249691905b8082111561249257600081600090555060010161247a565b5090565b9056fea265627a7a72315820e89bfa4d6d9f91867942fff1706e7b626da4c83b92eed433e0856a2a278b0fe664736f6c63430005100032",
  "source": "pragma solidity ^0.5.0;\ncontract DecentMail{\n  event sendMessageEvent(address indexed from, address indexed to,  string _hash,  string _key);\n  event registerUserEvent(address indexed from, string email);\n  struct Message {\n    address sender;\n    string subject;\n    string hash;\n    string key;\n    uint timestamp;\n    address receiver;\n  }\n  struct ContractProperties {\n    address User;\n    address[] registeredUsersAddress;\n  }\n  struct Inbox {\n    uint numReceivedMessages;\n    mapping (uint => Message) receivedMessages;\n  }\n  struct Sentbox {\n      uint numSentMessages;\n      mapping (uint => Message) sentMessages;\n  }\n  struct Member{\n      bool isRegistered;\n      string email;\n      address user;\n  }\n  mapping (address => Member) mailId;\n  mapping (string => Member) addresses;\n  mapping (address => Inbox) userInboxes;\n  mapping (address => Sentbox) userSentboxes;\n\n  Inbox newInbox;\n  Sentbox newSentbox;\n  Message newMessage;\n  ContractProperties contractProperties;\n\n  function checkRegistration(string memory email) public view returns (bool){\n        require(mailId[msg.sender].isRegistered == true);\n        require(addresses[email].isRegistered == true);\n        require(addresses[email].user == msg.sender);\n        return true;\n    }\n  function getMail(address user) public view returns (string memory){\n      require(mailId[user].isRegistered == true);\n      return mailId[user].email;\n  }\n  function getAddress(string memory email) public view returns (address){\n      require(addresses[email].isRegistered == true);\n      return addresses[email].user;\n  }\n  function registerUser(string memory email) public{\n      require(mailId[msg.sender].isRegistered == false);\n      require(addresses[email].isRegistered == false);\n \n      userInboxes[msg.sender] = newInbox;\n      userSentboxes[msg.sender] = newSentbox;\n      mailId[msg.sender]  = Member(true, email, msg.sender);\n      addresses[email] = mailId[msg.sender];\n      contractProperties.registeredUsersAddress.push(msg.sender);\n     \n      emit registerUserEvent(msg.sender, email);\n  }\n  function getContractProperties() public view returns (address, address[] memory ) {\n    return (contractProperties.User, contractProperties.registeredUsersAddress);\n  }\n  function sendMessage(string memory  _receiver,  string memory _subject, string memory  _hash,  string memory _key) public {\n    require(addresses[_receiver].isRegistered == true);\n    newMessage.hash = _hash;\n    newMessage.key = _key;\n    newMessage.timestamp = now;\n    newMessage.sender = msg.sender;\n    newMessage.receiver = getAddress(_receiver);\n    newMessage.subject = _subject;\n    Sentbox storage sendermessages = userSentboxes[msg.sender];\n    sendermessages.sentMessages[sendermessages.numSentMessages] = newMessage;\n    sendermessages.numSentMessages++;\n    Inbox storage receiversInbox = userInboxes[newMessage.receiver];\n    receiversInbox.receivedMessages[receiversInbox.numReceivedMessages] = newMessage;\n    receiversInbox.numReceivedMessages++;\n    \n    emit sendMessageEvent(msg.sender, newMessage.receiver, _hash, _key);\n  }\n  function receiveMessages(uint index) public view returns ( string memory,  string memory, uint, string memory, string memory) {\n    require (index >= 0);\n    Inbox storage receiversInbox = userInboxes[msg.sender];\n    Message memory message = receiversInbox.receivedMessages[index];\n    return (message.hash, message.key, message.timestamp, getMail(message.sender), message.subject);\n  }\n  function sentMessages(uint index) public view returns ( string memory, string memory, uint, address, string memory) {\n    require(index >= 0);\n    Sentbox storage sendermessages = userSentboxes[msg.sender];\n    Message memory message = sendermessages.sentMessages[index];\n    return (message.hash, message.key, message.timestamp, message.receiver, message.subject);\n  }\n  function getMyInboxSize() public view returns (uint) {\n    return ( userInboxes[msg.sender].numReceivedMessages);\n  }\n  function getMySentSize() public view returns (uint) {\n    return ( userSentboxes[msg.sender].numSentMessages);\n  }\n}",
  "sourcePath": "/home/ankita/Documents/Decentmail/contracts/DecentMail.sol",
  "compiler": {
    "name": "solc",
    "version": "0.5.16+commit.9c3226ce.Emscripten.clang"
  },
  "schemaVersion": "3.3.4",
  "updatedAt": "2021-05-23T13:02:58.384Z",
  "networkType": "ethereum",
  "devdoc": {
    "methods": {}
  },
  "userdoc": {
    "methods": {}
  }
}