{
  "contractName": "DecentMail",
  "abi": [
    {
      "anonymous": false,
      "inputs": [
        {
          "indexed": true,
          "internalType": "address",
          "name": "from",
          "type": "address"
        },
        {
          "indexed": false,
          "internalType": "string",
          "name": "email",
          "type": "string"
        }
      ],
      "name": "registerUserEvent",
      "type": "event"
    },
    {
      "anonymous": false,
      "inputs": [
        {
          "indexed": true,
          "internalType": "address",
          "name": "from",
          "type": "address"
        },
        {
          "indexed": true,
          "internalType": "address",
          "name": "to",
          "type": "address"
        },
        {
          "indexed": false,
          "internalType": "string",
          "name": "_hash",
          "type": "string"
        },
        {
          "indexed": false,
          "internalType": "string",
          "name": "_key",
          "type": "string"
        }
      ],
      "name": "sendMessageEvent",
      "type": "event"
    },
    {
      "constant": true,
      "inputs": [
        {
          "internalType": "string",
          "name": "email",
          "type": "string"
        }
      ],
      "name": "checkRegistration",
      "outputs": [
        {
          "internalType": "bool",
          "name": "",
          "type": "bool"
        }
      ],
      "payable": false,
      "stateMutability": "view",
      "type": "function"
    },
    {
      "constant": true,
      "inputs": [],
      "name": "getMail",
      "outputs": [
        {
          "internalType": "string",
          "name": "",
          "type": "string"
        }
      ],
      "payable": false,
      "stateMutability": "view",
      "type": "function"
    },
    {
      "constant": true,
      "inputs": [
        {
          "internalType": "string",
          "name": "email",
          "type": "string"
        }
      ],
      "name": "getAddress",
      "outputs": [
        {
          "internalType": "address",
          "name": "",
          "type": "address"
        }
      ],
      "payable": false,
      "stateMutability": "view",
      "type": "function"
    },
    {
      "constant": false,
      "inputs": [
        {
          "internalType": "string",
          "name": "email",
          "type": "string"
        }
      ],
      "name": "registerUser",
      "outputs": [],
      "payable": false,
      "stateMutability": "nonpayable",
      "type": "function"
    },
    {
      "constant": true,
      "inputs": [],
      "name": "getContractProperties",
      "outputs": [
        {
          "internalType": "address",
          "name": "",
          "type": "address"
        },
        {
          "internalType": "address[]",
          "name": "",
          "type": "address[]"
        }
      ],
      "payable": false,
      "stateMutability": "view",
      "type": "function"
    },
    {
      "constant": false,
      "inputs": [
        {
          "internalType": "address",
          "name": "_receiver",
          "type": "address"
        },
        {
          "internalType": "string",
          "name": "_subject",
          "type": "string"
        },
        {
          "internalType": "string",
          "name": "_hash",
          "type": "string"
        },
        {
          "internalType": "string",
          "name": "_key",
          "type": "string"
        }
      ],
      "name": "sendMessage",
      "outputs": [],
      "payable": false,
      "stateMutability": "nonpayable",
      "type": "function"
    },
    {
      "constant": true,
      "inputs": [
        {
          "internalType": "uint256",
          "name": "index",
          "type": "uint256"
        }
      ],
      "name": "receiveMessages",
      "outputs": [
        {
          "internalType": "string",
          "name": "",
          "type": "string"
        },
        {
          "internalType": "string",
          "name": "",
          "type": "string"
        },
        {
          "internalType": "uint256",
          "name": "",
          "type": "uint256"
        },
        {
          "internalType": "address",
          "name": "",
          "type": "address"
        },
        {
          "internalType": "string",
          "name": "",
          "type": "string"
        }
      ],
      "payable": false,
      "stateMutability": "view",
      "type": "function"
    },
    {
      "constant": true,
      "inputs": [
        {
          "internalType": "uint256",
          "name": "index",
          "type": "uint256"
        }
      ],
      "name": "sentMessages",
      "outputs": [
        {
          "internalType": "string",
          "name": "",
          "type": "string"
        },
        {
          "internalType": "string",
          "name": "",
          "type": "string"
        },
        {
          "internalType": "uint256",
          "name": "",
          "type": "uint256"
        },
        {
          "internalType": "address",
          "name": "",
          "type": "address"
        },
        {
          "internalType": "string",
          "name": "",
          "type": "string"
        }
      ],
      "payable": false,
      "stateMutability": "view",
      "type": "function"
    },
    {
      "constant": true,
      "inputs": [],
      "name": "getMyInboxSize",
      "outputs": [
        {
          "internalType": "uint256",
          "name": "",
          "type": "uint256"
        }
      ],
      "payable": false,
      "stateMutability": "view",
      "type": "function"
    },
    {
      "constant": true,
      "inputs": [],
      "name": "getMySentSize",
      "outputs": [
        {
          "internalType": "uint256",
          "name": "",
          "type": "uint256"
        }
      ],
      "payable": false,
      "stateMutability": "view",
      "type": "function"
    }
  ],
  "bytecode": "0x608060405234801561001057600080fd5b5061235d806100206000396000f3fe608060405234801561001057600080fd5b506004361061009e5760003560e01c8063a544f67f11610066578063a544f67f146105d0578063bc294d7d146105ee578063bf40fac1146107a7578063e1313787146108a2578063e6c649ff146109755761009e565b806301d4a82f146100a35780630a417e1f146102ac5780636e9a215e146102ca578063704f1b941461035c57806389d45b9114610417575b600080fd5b6102aa600480360360808110156100b957600080fd5b81019080803573ffffffffffffffffffffffffffffffffffffffff169060200190929190803590602001906401000000008111156100f657600080fd5b82018360208201111561010857600080fd5b8035906020019184600183028401116401000000008311171561012a57600080fd5b91908080601f016020809104026020016040519081016040528093929190818152602001838380828437600081840152601f19601f8201169050808301925050505050505091929192908035906020019064010000000081111561018d57600080fd5b82018360208201111561019f57600080fd5b803590602001918460018302840111640100000000831117156101c157600080fd5b91908080601f016020809104026020016040519081016040528093929190818152602001838380828437600081840152601f19601f8201169050808301925050505050505091929192908035906020019064010000000081111561022457600080fd5b82018360208201111561023657600080fd5b8035906020019184600183028401116401000000008311171561025857600080fd5b91908080601f016020809104026020016040519081016040528093929190818152602001838380828437600081840152601f19601f8201169050808301925050505050505091929192905050506109f8565b005b6102b4611000565b6040518082815260200191505060405180910390f35b6102d261104a565b604051808373ffffffffffffffffffffffffffffffffffffffff1673ffffffffffffffffffffffffffffffffffffffff16815260200180602001828103825283818151815260200191508051906020019060200280838360005b8381101561034757808201518184015260208101905061032c565b50505050905001935050505060405180910390f35b6104156004803603602081101561037257600080fd5b810190808035906020019064010000000081111561038f57600080fd5b8201836020820111156103a157600080fd5b803590602001918460018302840111640100000000831117156103c357600080fd5b91908080601f016020809104026020016040519081016040528093929190818152602001838380828437600081840152601f19601f820116905080830192505050505050509192919290505050611109565b005b6104436004803603602081101561042d57600080fd5b810190808035906020019092919050505061160c565b6040518080602001806020018681526020018573ffffffffffffffffffffffffffffffffffffffff1673ffffffffffffffffffffffffffffffffffffffff16815260200180602001848103845289818151815260200191508051906020019080838360005b838110156104c35780820151818401526020810190506104a8565b50505050905090810190601f1680156104f05780820380516001836020036101000a031916815260200191505b50848103835288818151815260200191508051906020019080838360005b8381101561052957808201518184015260208101905061050e565b50505050905090810190601f1680156105565780820380516001836020036101000a031916815260200191505b50848103825285818151815260200191508051906020019080838360005b8381101561058f578082015181840152602081019050610574565b50505050905090810190601f1680156105bc5780820380516001836020036101000a031916815260200191505b509850505050505050505060405180910390f35b6105d8611962565b6040518082815260200191505060405180910390f35b61061a6004803603602081101561060457600080fd5b81019080803590602001909291905050506119ac565b6040518080602001806020018681526020018573ffffffffffffffffffffffffffffffffffffffff1673ffffffffffffffffffffffffffffffffffffffff16815260200180602001848103845289818151815260200191508051906020019080838360005b8381101561069a57808201518184015260208101905061067f565b50505050905090810190601f1680156106c75780820380516001836020036101000a031916815260200191505b50848103835288818151815260200191508051906020019080838360005b838110156107005780820151818401526020810190506106e5565b50505050905090810190601f16801561072d5780820380516001836020036101000a031916815260200191505b50848103825285818151815260200191508051906020019080838360005b8381101561076657808201518184015260208101905061074b565b50505050905090810190601f1680156107935780820380516001836020036101000a031916815260200191505b509850505050505050505060405180910390f35b610860600480360360208110156107bd57600080fd5b81019080803590602001906401000000008111156107da57600080fd5b8201836020820111156107ec57600080fd5b8035906020019184600183028401116401000000008311171561080e57600080fd5b91908080601f016020809104026020016040519081016040528093929190818152602001838380828437600081840152601f19601f820116905080830192505050505050509192919290505050611d02565b604051808273ffffffffffffffffffffffffffffffffffffffff1673ffffffffffffffffffffffffffffffffffffffff16815260200191505060405180910390f35b61095b600480360360208110156108b857600080fd5b81019080803590602001906401000000008111156108d557600080fd5b8201836020820111156108e757600080fd5b8035906020019184600183028401116401000000008311171561090957600080fd5b91908080601f016020809104026020016040519081016040528093929190818152602001838380828437600081840152601f19601f820116905080830192505050505050509192919290505050611e22565b604051808215151515815260200191505060405180910390f35b61097d611fda565b6040518080602001828103825283818151815260200191508051906020019080838360005b838110156109bd5780820151818401526020810190506109a2565b50505050905090810190601f1680156109ea5780820380516001836020036101000a031916815260200191505b509250505060405180910390f35b600115156000808673ffffffffffffffffffffffffffffffffffffffff1673ffffffffffffffffffffffffffffffffffffffff16815260200190815260200160002060000160009054906101000a900460ff16151514610a5757600080fd5b8160086002019080519060200190610a7092919061211a565b508060086003019080519060200190610a8a92919061211a565b504260086004018190555033600860000160006101000a81548173ffffffffffffffffffffffffffffffffffffffff021916908373ffffffffffffffffffffffffffffffffffffffff16021790555083600860050160006101000a81548173ffffffffffffffffffffffffffffffffffffffff021916908373ffffffffffffffffffffffffffffffffffffffff1602179055508260086001019080519060200190610b3692919061211a565b506000600360003373ffffffffffffffffffffffffffffffffffffffff1673ffffffffffffffffffffffffffffffffffffffff16815260200190815260200160002090506008816001016000836000015481526020019081526020016000206000820160009054906101000a900473ffffffffffffffffffffffffffffffffffffffff168160000160006101000a81548173ffffffffffffffffffffffffffffffffffffffff021916908373ffffffffffffffffffffffffffffffffffffffff16021790555060018201816001019080546001816001161561010002031660029004610c2392919061219a565b5060028201816002019080546001816001161561010002031660029004610c4b92919061219a565b5060038201816003019080546001816001161561010002031660029004610c7392919061219a565b50600482015481600401556005820160009054906101000a900473ffffffffffffffffffffffffffffffffffffffff168160050160006101000a81548173ffffffffffffffffffffffffffffffffffffffff021916908373ffffffffffffffffffffffffffffffffffffffff16021790555090505080600001600081548092919060010191905055506000600260008773ffffffffffffffffffffffffffffffffffffffff1673ffffffffffffffffffffffffffffffffffffffff16815260200190815260200160002090506008816001016000836000015481526020019081526020016000206000820160009054906101000a900473ffffffffffffffffffffffffffffffffffffffff168160000160006101000a81548173ffffffffffffffffffffffffffffffffffffffff021916908373ffffffffffffffffffffffffffffffffffffffff16021790555060018201816001019080546001816001161561010002031660029004610de892919061219a565b5060028201816002019080546001816001161561010002031660029004610e1092919061219a565b5060038201816003019080546001816001161561010002031660029004610e3892919061219a565b50600482015481600401556005820160009054906101000a900473ffffffffffffffffffffffffffffffffffffffff168160050160006101000a81548173ffffffffffffffffffffffffffffffffffffffff021916908373ffffffffffffffffffffffffffffffffffffffff16021790555090505080600001600081548092919060010191905055508573ffffffffffffffffffffffffffffffffffffffff163373ffffffffffffffffffffffffffffffffffffffff167f4c45d9a1ab9646a61f1e9cc76437e87acfd4c2447a8e5a425155b66cd2b4434b8686604051808060200180602001838103835285818151815260200191508051906020019080838360005b83811015610f56578082015181840152602081019050610f3b565b50505050905090810190601f168015610f835780820380516001836020036101000a031916815260200191505b50838103825284818151815260200191508051906020019080838360005b83811015610fbc578082015181840152602081019050610fa1565b50505050905090810190601f168015610fe95780820380516001836020036101000a031916815260200191505b5094505050505060405180910390a3505050505050565b6000600360003373ffffffffffffffffffffffffffffffffffffffff1673ffffffffffffffffffffffffffffffffffffffff16815260200190815260200160002060000154905090565b60006060600e60000160009054906101000a900473ffffffffffffffffffffffffffffffffffffffff16600e600101808054806020026020016040519081016040528092919081815260200182805480156110fa57602002820191906000526020600020905b8160009054906101000a900473ffffffffffffffffffffffffffffffffffffffff1673ffffffffffffffffffffffffffffffffffffffff16815260200190600101908083116110b0575b50505050509050915091509091565b600015156000803373ffffffffffffffffffffffffffffffffffffffff1673ffffffffffffffffffffffffffffffffffffffff16815260200190815260200160002060000160009054906101000a900460ff1615151461116857600080fd5b600015156001826040518082805190602001908083835b602083106111a2578051825260208201915060208101905060208303925061117f565b6001836020036101000a038019825116818451168082178552505050505050905001915050908152602001604051809103902060000160009054906101000a900460ff161515146111f257600080fd5b6004600260003373ffffffffffffffffffffffffffffffffffffffff1673ffffffffffffffffffffffffffffffffffffffff168152602001908152602001600020600082015481600001559050506006600360003373ffffffffffffffffffffffffffffffffffffffff1673ffffffffffffffffffffffffffffffffffffffff1681526020019081526020016000206000820154816000015590505060405180606001604052806001151581526020018281526020013373ffffffffffffffffffffffffffffffffffffffff168152506000803373ffffffffffffffffffffffffffffffffffffffff1673ffffffffffffffffffffffffffffffffffffffff16815260200190815260200160002060008201518160000160006101000a81548160ff021916908315150217905550602082015181600101908051906020019061133c929190612221565b5060408201518160020160006101000a81548173ffffffffffffffffffffffffffffffffffffffff021916908373ffffffffffffffffffffffffffffffffffffffff1602179055509050506000803373ffffffffffffffffffffffffffffffffffffffff1673ffffffffffffffffffffffffffffffffffffffff1681526020019081526020016000206001826040518082805190602001908083835b602083106113fb57805182526020820191506020810190506020830392506113d8565b6001836020036101000a03801982511681845116808217855250505050505090500191505090815260200160405180910390206000820160009054906101000a900460ff168160000160006101000a81548160ff0219169083151502179055506001820181600101908054600181600116156101000203166002900461148292919061219a565b506002820160009054906101000a900473ffffffffffffffffffffffffffffffffffffffff168160020160006101000a81548173ffffffffffffffffffffffffffffffffffffffff021916908373ffffffffffffffffffffffffffffffffffffffff160217905550905050600e6001013390806001815401808255809150509060018203906000526020600020016000909192909190916101000a81548173ffffffffffffffffffffffffffffffffffffffff021916908373ffffffffffffffffffffffffffffffffffffffff160217905550503373ffffffffffffffffffffffffffffffffffffffff167fa88d010628b8e1dd759f599df85ffec5745748aadceba454c8d75075960c7ad8826040518080602001828103825283818151815260200191508051906020019080838360005b838110156115cf5780820151818401526020810190506115b4565b50505050905090810190601f1680156115fc5780820380516001836020036101000a031916815260200191505b509250505060405180910390a250565b6060806000806060600086101561162257600080fd5b6000600260003373ffffffffffffffffffffffffffffffffffffffff1673ffffffffffffffffffffffffffffffffffffffff168152602001908152602001600020905061166d6122a1565b8160010160008981526020019081526020016000206040518060c00160405290816000820160009054906101000a900473ffffffffffffffffffffffffffffffffffffffff1673ffffffffffffffffffffffffffffffffffffffff1673ffffffffffffffffffffffffffffffffffffffff168152602001600182018054600181600116156101000203166002900480601f01602080910402602001604051908101604052809291908181526020018280546001816001161561010002031660029004801561177c5780601f106117515761010080835404028352916020019161177c565b820191906000526020600020905b81548152906001019060200180831161175f57829003601f168201915b50505050508152602001600282018054600181600116156101000203166002900480601f01602080910402602001604051908101604052809291908181526020018280546001816001161561010002031660029004801561181e5780601f106117f35761010080835404028352916020019161181e565b820191906000526020600020905b81548152906001019060200180831161180157829003601f168201915b50505050508152602001600382018054600181600116156101000203166002900480601f0160208091040260200160405190810160405280929190818152602001828054600181600116156101000203166002900480156118c05780601f10611895576101008083540402835291602001916118c0565b820191906000526020600020905b8154815290600101906020018083116118a357829003601f168201915b50505050508152602001600482015481526020016005820160009054906101000a900473ffffffffffffffffffffffffffffffffffffffff1673ffffffffffffffffffffffffffffffffffffffff1673ffffffffffffffffffffffffffffffffffffffff168152505090508060400151816060015182608001518360000151846020015184945083935080905096509650965096509650505091939590929450565b6000600260003373ffffffffffffffffffffffffffffffffffffffff1673ffffffffffffffffffffffffffffffffffffffff16815260200190815260200160002060000154905090565b606080600080606060008610156119c257600080fd5b6000600360003373ffffffffffffffffffffffffffffffffffffffff1673ffffffffffffffffffffffffffffffffffffffff1681526020019081526020016000209050611a0d6122a1565b8160010160008981526020019081526020016000206040518060c00160405290816000820160009054906101000a900473ffffffffffffffffffffffffffffffffffffffff1673ffffffffffffffffffffffffffffffffffffffff1673ffffffffffffffffffffffffffffffffffffffff168152602001600182018054600181600116156101000203166002900480601f016020809104026020016040519081016040528092919081815260200182805460018160011615610100020316600290048015611b1c5780601f10611af157610100808354040283529160200191611b1c565b820191906000526020600020905b815481529060010190602001808311611aff57829003601f168201915b50505050508152602001600282018054600181600116156101000203166002900480601f016020809104026020016040519081016040528092919081815260200182805460018160011615610100020316600290048015611bbe5780601f10611b9357610100808354040283529160200191611bbe565b820191906000526020600020905b815481529060010190602001808311611ba157829003601f168201915b50505050508152602001600382018054600181600116156101000203166002900480601f016020809104026020016040519081016040528092919081815260200182805460018160011615610100020316600290048015611c605780601f10611c3557610100808354040283529160200191611c60565b820191906000526020600020905b815481529060010190602001808311611c4357829003601f168201915b50505050508152602001600482015481526020016005820160009054906101000a900473ffffffffffffffffffffffffffffffffffffffff1673ffffffffffffffffffffffffffffffffffffffff1673ffffffffffffffffffffffffffffffffffffffff168152505090508060400151816060015182608001518360a00151846020015184945083935080905096509650965096509650505091939590929450565b6000600115156001836040518082805190602001908083835b60208310611d3e5780518252602082019150602081019050602083039250611d1b565b6001836020036101000a038019825116818451168082178552505050505050905001915050908152602001604051809103902060000160009054906101000a900460ff16151514611d8e57600080fd5b6001826040518082805190602001908083835b60208310611dc45780518252602082019150602081019050602083039250611da1565b6001836020036101000a038019825116818451168082178552505050505050905001915050908152602001604051809103902060020160009054906101000a900473ffffffffffffffffffffffffffffffffffffffff169050919050565b6000600115156000803373ffffffffffffffffffffffffffffffffffffffff1673ffffffffffffffffffffffffffffffffffffffff16815260200190815260200160002060000160009054906101000a900460ff16151514611e8357600080fd5b600115156001836040518082805190602001908083835b60208310611ebd5780518252602082019150602081019050602083039250611e9a565b6001836020036101000a038019825116818451168082178552505050505050905001915050908152602001604051809103902060000160009054906101000a900460ff16151514611f0d57600080fd5b3373ffffffffffffffffffffffffffffffffffffffff166001836040518082805190602001908083835b60208310611f5a5780518252602082019150602081019050602083039250611f37565b6001836020036101000a038019825116818451168082178552505050505050905001915050908152602001604051809103902060020160009054906101000a900473ffffffffffffffffffffffffffffffffffffffff1673ffffffffffffffffffffffffffffffffffffffff1614611fd157600080fd5b60019050919050565b6060600115156000803373ffffffffffffffffffffffffffffffffffffffff1673ffffffffffffffffffffffffffffffffffffffff16815260200190815260200160002060000160009054906101000a900460ff1615151461203b57600080fd5b6000803373ffffffffffffffffffffffffffffffffffffffff1673ffffffffffffffffffffffffffffffffffffffff1681526020019081526020016000206001018054600181600116156101000203166002900480601f0160208091040260200160405190810160405280929190818152602001828054600181600116156101000203166002900480156121105780601f106120e557610100808354040283529160200191612110565b820191906000526020600020905b8154815290600101906020018083116120f357829003601f168201915b5050505050905090565b828054600181600116156101000203166002900490600052602060002090601f016020900481019282601f1061215b57805160ff1916838001178555612189565b82800160010185558215612189579182015b8281111561218857825182559160200191906001019061216d565b5b5090506121969190612303565b5090565b828054600181600116156101000203166002900490600052602060002090601f016020900481019282601f106121d35780548555612210565b8280016001018555821561221057600052602060002091601f016020900482015b8281111561220f5782548255916001019190600101906121f4565b5b50905061221d9190612303565b5090565b828054600181600116156101000203166002900490600052602060002090601f016020900481019282601f1061226257805160ff1916838001178555612290565b82800160010185558215612290579182015b8281111561228f578251825591602001919060010190612274565b5b50905061229d9190612303565b5090565b6040518060c00160405280600073ffffffffffffffffffffffffffffffffffffffff16815260200160608152602001606081526020016060815260200160008152602001600073ffffffffffffffffffffffffffffffffffffffff1681525090565b61232591905b80821115612321576000816000905550600101612309565b5090565b9056fea265627a7a723158204de68e72bc4265f1892e83db77e3a4f028718aa5267ff1a3b9d2642f090d9c1c64736f6c63430005100032",
  "source": "pragma solidity ^0.5.0;\ncontract DecentMail{\n  event sendMessageEvent(address indexed from, address indexed to,  string _hash,  string _key);\n  event registerUserEvent(address indexed from, string email);\n  struct Message {\n    address sender;\n    string subject;\n    string hash;\n    string key;\n    uint timestamp;\n    address receiver;\n  }\n  struct ContractProperties {\n    address User;\n    address[] registeredUsersAddress;\n  }\n  struct Inbox {\n    uint numReceivedMessages;\n    mapping (uint => Message) receivedMessages;\n  }\n  struct Sentbox {\n      uint numSentMessages;\n      mapping (uint => Message) sentMessages;\n  }\n  struct Member{\n      bool isRegistered;\n      string email;\n      address user;\n  }\n  mapping (address => Member) mailId;\n  mapping (string => Member) addresses;\n  mapping (address => Inbox) userInboxes;\n  mapping (address => Sentbox) userSentboxes;\n\n  Inbox newInbox;\n  Sentbox newSentbox;\n  Message newMessage;\n  ContractProperties contractProperties;\n\n  function checkRegistration(string memory email) public view returns (bool){\n        require(mailId[msg.sender].isRegistered == true);\n        require(addresses[email].isRegistered == true);\n        require(addresses[email].user == msg.sender);\n        return true;\n    }\n  function getMail() public view returns (string memory){\n      require(mailId[msg.sender].isRegistered == true);\n      return mailId[msg.sender].email;\n  }\n  function getAddress(string memory email) public view returns (address){\n      require(addresses[email].isRegistered == true);\n      return addresses[email].user;\n  }\n  function registerUser(string memory email) public{\n      require(mailId[msg.sender].isRegistered == false);\n      require(addresses[email].isRegistered == false);\n \n      userInboxes[msg.sender] = newInbox;\n      userSentboxes[msg.sender] = newSentbox;\n      mailId[msg.sender]  = Member(true, email, msg.sender);\n      addresses[email] = mailId[msg.sender];\n      contractProperties.registeredUsersAddress.push(msg.sender);\n     \n      emit registerUserEvent(msg.sender, email);\n  }\n  function getContractProperties() public view returns (address, address[] memory ) {\n    return (contractProperties.User, contractProperties.registeredUsersAddress);\n  }\n  function sendMessage(address _receiver,  string memory _subject, string memory  _hash,  string memory _key) public {\n    require(mailId[_receiver].isRegistered == true);\n    newMessage.hash = _hash;\n    newMessage.key = _key;\n    newMessage.timestamp = now;\n    newMessage.sender = msg.sender;\n    newMessage.receiver = _receiver;\n    newMessage.subject = _subject;\n    Sentbox storage sendermessages = userSentboxes[msg.sender];\n    sendermessages.sentMessages[sendermessages.numSentMessages] = newMessage;\n    sendermessages.numSentMessages++;\n    Inbox storage receiversInbox = userInboxes[_receiver];\n    receiversInbox.receivedMessages[receiversInbox.numReceivedMessages] = newMessage;\n    receiversInbox.numReceivedMessages++;\n    \n    emit sendMessageEvent(msg.sender, _receiver, _hash, _key);\n  }\n  function receiveMessages(uint index) public view returns ( string memory,  string memory, uint, address, string memory) {\n    require (index >= 0);\n    Inbox storage receiversInbox = userInboxes[msg.sender];\n    Message memory message = receiversInbox.receivedMessages[index];\n    return (message.hash, message.key, message.timestamp, message.sender, message.subject);\n  }\n  function sentMessages(uint index) public view returns ( string memory, string memory, uint, address, string memory) {\n    require(index >= 0);\n    Sentbox storage sendermessages = userSentboxes[msg.sender];\n    Message memory message = sendermessages.sentMessages[index];\n    return (message.hash, message.key, message.timestamp, message.receiver, message.subject);\n  }\n  function getMyInboxSize() public view returns (uint) {\n    return ( userInboxes[msg.sender].numReceivedMessages);\n  }\n  function getMySentSize() public view returns (uint) {\n    return ( userSentboxes[msg.sender].numSentMessages);\n  }\n}",
  "sourcePath": "/home/ankita/Documents/Decentmail/contracts/DecentMail.sol",
  "compiler": {
    "name": "solc",
    "version": "0.5.16+commit.9c3226ce.Emscripten.clang"
  },
  "schemaVersion": "3.3.4",
  "updatedAt": "2021-05-13T06:23:07.287Z",
  "networkType": "ethereum",
  "devdoc": {
    "methods": {}
  },
  "userdoc": {
    "methods": {}
  }
}