{
  "contractName": "DecentMail",
  "abi": [
    {
      "anonymous": false,
      "inputs": [
        {
          "indexed": true,
          "internalType": "address",
          "name": "from",
          "type": "address"
        },
        {
          "indexed": false,
          "internalType": "string",
          "name": "email",
          "type": "string"
        }
      ],
      "name": "registerUserEvent",
      "type": "event"
    },
    {
      "anonymous": false,
      "inputs": [
        {
          "indexed": true,
          "internalType": "address",
          "name": "from",
          "type": "address"
        },
        {
          "indexed": true,
          "internalType": "address",
          "name": "to",
          "type": "address"
        },
        {
          "indexed": false,
          "internalType": "string",
          "name": "_hash",
          "type": "string"
        },
        {
          "indexed": false,
          "internalType": "string",
          "name": "_key",
          "type": "string"
        }
      ],
      "name": "sendMessageEvent",
      "type": "event"
    },
    {
      "constant": true,
      "inputs": [
        {
          "internalType": "string",
          "name": "email",
          "type": "string"
        }
      ],
      "name": "checkRegistration",
      "outputs": [
        {
          "internalType": "bool",
          "name": "",
          "type": "bool"
        }
      ],
      "payable": false,
      "stateMutability": "view",
      "type": "function"
    },
    {
      "constant": true,
      "inputs": [
        {
          "internalType": "address",
          "name": "user",
          "type": "address"
        }
      ],
      "name": "getMail",
      "outputs": [
        {
          "internalType": "string",
          "name": "",
          "type": "string"
        }
      ],
      "payable": false,
      "stateMutability": "view",
      "type": "function"
    },
    {
      "constant": true,
      "inputs": [
        {
          "internalType": "string",
          "name": "email",
          "type": "string"
        }
      ],
      "name": "getAddress",
      "outputs": [
        {
          "internalType": "address",
          "name": "",
          "type": "address"
        }
      ],
      "payable": false,
      "stateMutability": "view",
      "type": "function"
    },
    {
      "constant": false,
      "inputs": [
        {
          "internalType": "string",
          "name": "email",
          "type": "string"
        }
      ],
      "name": "registerUser",
      "outputs": [],
      "payable": false,
      "stateMutability": "nonpayable",
      "type": "function"
    },
    {
      "constant": true,
      "inputs": [],
      "name": "getContractProperties",
      "outputs": [
        {
          "internalType": "address",
          "name": "",
          "type": "address"
        },
        {
          "internalType": "address[]",
          "name": "",
          "type": "address[]"
        }
      ],
      "payable": false,
      "stateMutability": "view",
      "type": "function"
    },
    {
      "constant": false,
      "inputs": [
        {
          "internalType": "string",
          "name": "_receiver",
          "type": "string"
        },
        {
          "internalType": "string",
          "name": "_subject",
          "type": "string"
        },
        {
          "internalType": "uint256",
          "name": "_message",
          "type": "uint256"
        },
        {
          "internalType": "string",
          "name": "_hash",
          "type": "string"
        },
        {
          "internalType": "string",
          "name": "_key",
          "type": "string"
        }
      ],
      "name": "sendMessage",
      "outputs": [],
      "payable": false,
      "stateMutability": "nonpayable",
      "type": "function"
    },
    {
      "constant": true,
      "inputs": [
        {
          "internalType": "uint256",
          "name": "index",
          "type": "uint256"
        }
      ],
      "name": "receiveMessages",
      "outputs": [
        {
          "internalType": "string",
          "name": "",
          "type": "string"
        },
        {
          "internalType": "string",
          "name": "",
          "type": "string"
        },
        {
          "internalType": "uint256",
          "name": "",
          "type": "uint256"
        },
        {
          "internalType": "string",
          "name": "",
          "type": "string"
        },
        {
          "internalType": "string",
          "name": "",
          "type": "string"
        },
        {
          "internalType": "uint256",
          "name": "",
          "type": "uint256"
        }
      ],
      "payable": false,
      "stateMutability": "view",
      "type": "function"
    },
    {
      "constant": true,
      "inputs": [
        {
          "internalType": "uint256",
          "name": "index",
          "type": "uint256"
        }
      ],
      "name": "sentMessages",
      "outputs": [
        {
          "internalType": "string",
          "name": "",
          "type": "string"
        },
        {
          "internalType": "string",
          "name": "",
          "type": "string"
        },
        {
          "internalType": "uint256",
          "name": "",
          "type": "uint256"
        },
        {
          "internalType": "string",
          "name": "",
          "type": "string"
        },
        {
          "internalType": "string",
          "name": "",
          "type": "string"
        },
        {
          "internalType": "uint256",
          "name": "",
          "type": "uint256"
        }
      ],
      "payable": false,
      "stateMutability": "view",
      "type": "function"
    },
    {
      "constant": true,
      "inputs": [],
      "name": "getMyInboxSize",
      "outputs": [
        {
          "internalType": "uint256",
          "name": "",
          "type": "uint256"
        }
      ],
      "payable": false,
      "stateMutability": "view",
      "type": "function"
    },
    {
      "constant": true,
      "inputs": [],
      "name": "getMySentSize",
      "outputs": [
        {
          "internalType": "uint256",
          "name": "",
          "type": "uint256"
        }
      ],
      "payable": false,
      "stateMutability": "view",
      "type": "function"
    }
  ],
  "bytecode": "0x608060405234801561001057600080fd5b50612571806100206000396000f3fe608060405234801561001057600080fd5b506004361061009e5760003560e01c8063a544f67f11610066578063a544f67f14610691578063a6e34bb9146106af578063bc294d7d1461076c578063bf40fac114610965578063e131378714610a605761009e565b80630a417e1f146100a3578063478c1f07146100c15780636e9a215e1461034b578063704f1b94146103dd57806389d45b9114610498575b600080fd5b6100ab610b33565b6040518082815260200191505060405180910390f35b610349600480360360a08110156100d757600080fd5b81019080803590602001906401000000008111156100f457600080fd5b82018360208201111561010657600080fd5b8035906020019184600183028401116401000000008311171561012857600080fd5b91908080601f016020809104026020016040519081016040528093929190818152602001838380828437600081840152601f19601f8201169050808301925050505050505091929192908035906020019064010000000081111561018b57600080fd5b82018360208201111561019d57600080fd5b803590602001918460018302840111640100000000831117156101bf57600080fd5b91908080601f016020809104026020016040519081016040528093929190818152602001838380828437600081840152601f19601f820116905080830192505050505050509192919290803590602001909291908035906020019064010000000081111561022c57600080fd5b82018360208201111561023e57600080fd5b8035906020019184600183028401116401000000008311171561026057600080fd5b91908080601f016020809104026020016040519081016040528093929190818152602001838380828437600081840152601f19601f820116905080830192505050505050509192919290803590602001906401000000008111156102c357600080fd5b8201836020820111156102d557600080fd5b803590602001918460018302840111640100000000831117156102f757600080fd5b91908080601f016020809104026020016040519081016040528093929190818152602001838380828437600081840152601f19601f820116905080830192505050505050509192919290505050610b7d565b005b610353611221565b604051808373ffffffffffffffffffffffffffffffffffffffff1673ffffffffffffffffffffffffffffffffffffffff16815260200180602001828103825283818151815260200191508051906020019060200280838360005b838110156103c85780820151818401526020810190506103ad565b50505050905001935050505060405180910390f35b610496600480360360208110156103f357600080fd5b810190808035906020019064010000000081111561041057600080fd5b82018360208201111561042257600080fd5b8035906020019184600183028401116401000000008311171561044457600080fd5b91908080601f016020809104026020016040519081016040528093929190818152602001838380828437600081840152601f19601f8201169050808301925050505050505091929192905050506112e0565b005b6104c4600480360360208110156104ae57600080fd5b81019080803590602001909291905050506117e3565b604051808060200180602001878152602001806020018060200186815260200185810385528b818151815260200191508051906020019080838360005b8381101561051c578082015181840152602081019050610501565b50505050905090810190601f1680156105495780820380516001836020036101000a031916815260200191505b5085810384528a818151815260200191508051906020019080838360005b83811015610582578082015181840152602081019050610567565b50505050905090810190601f1680156105af5780820380516001836020036101000a031916815260200191505b50858103835288818151815260200191508051906020019080838360005b838110156105e85780820151818401526020810190506105cd565b50505050905090810190601f1680156106155780820380516001836020036101000a031916815260200191505b50858103825287818151815260200191508051906020019080838360005b8381101561064e578082015181840152602081019050610633565b50505050905090810190601f16801561067b5780820380516001836020036101000a031916815260200191505b509a505050505050505050505060405180910390f35b610699611b53565b6040518082815260200191505060405180910390f35b6106f1600480360360208110156106c557600080fd5b81019080803573ffffffffffffffffffffffffffffffffffffffff169060200190929190505050611b9d565b6040518080602001828103825283818151815260200191508051906020019080838360005b83811015610731578082015181840152602081019050610716565b50505050905090810190601f16801561075e5780820380516001836020036101000a031916815260200191505b509250505060405180910390f35b6107986004803603602081101561078257600080fd5b8101908080359060200190929190505050611cdf565b604051808060200180602001878152602001806020018060200186815260200185810385528b818151815260200191508051906020019080838360005b838110156107f05780820151818401526020810190506107d5565b50505050905090810190601f16801561081d5780820380516001836020036101000a031916815260200191505b5085810384528a818151815260200191508051906020019080838360005b8381101561085657808201518184015260208101905061083b565b50505050905090810190601f1680156108835780820380516001836020036101000a031916815260200191505b50858103835288818151815260200191508051906020019080838360005b838110156108bc5780820151818401526020810190506108a1565b50505050905090810190601f1680156108e95780820380516001836020036101000a031916815260200191505b50858103825287818151815260200191508051906020019080838360005b83811015610922578082015181840152602081019050610907565b50505050905090810190601f16801561094f5780820380516001836020036101000a031916815260200191505b509a505050505050505050505060405180910390f35b610a1e6004803603602081101561097b57600080fd5b810190808035906020019064010000000081111561099857600080fd5b8201836020820111156109aa57600080fd5b803590602001918460018302840111640100000000831117156109cc57600080fd5b91908080601f016020809104026020016040519081016040528093929190818152602001838380828437600081840152601f19601f82011690508083019250505050505050919291929050505061204f565b604051808273ffffffffffffffffffffffffffffffffffffffff1673ffffffffffffffffffffffffffffffffffffffff16815260200191505060405180910390f35b610b1960048036036020811015610a7657600080fd5b8101908080359060200190640100000000811115610a9357600080fd5b820183602082011115610aa557600080fd5b80359060200191846001830284011164010000000083111715610ac757600080fd5b91908080601f016020809104026020016040519081016040528093929190818152602001838380828437600081840152601f19601f82011690508083019250505050505050919291929050505061216f565b604051808215151515815260200191505060405180910390f35b6000600360003373ffffffffffffffffffffffffffffffffffffffff1673ffffffffffffffffffffffffffffffffffffffff16815260200190815260200160002060000154905090565b600115156001866040518082805190602001908083835b60208310610bb75780518252602082019150602081019050602083039250610b94565b6001836020036101000a038019825116818451168082178552505050505050905001915050908152602001604051809103902060000160009054906101000a900460ff16151514610c0757600080fd5b8160086002019080519060200190610c20929190612327565b508060086004019080519060200190610c3a929190612327565b50826008600301819055504260086005018190555033600860000160006101000a81548173ffffffffffffffffffffffffffffffffffffffff021916908373ffffffffffffffffffffffffffffffffffffffff160217905550610c9c8561204f565b600860060160006101000a81548173ffffffffffffffffffffffffffffffffffffffff021916908373ffffffffffffffffffffffffffffffffffffffff1602179055508360086001019080519060200190610cf8929190612327565b506000600360003373ffffffffffffffffffffffffffffffffffffffff1673ffffffffffffffffffffffffffffffffffffffff16815260200190815260200160002090506008816001016000836000015481526020019081526020016000206000820160009054906101000a900473ffffffffffffffffffffffffffffffffffffffff168160000160006101000a81548173ffffffffffffffffffffffffffffffffffffffff021916908373ffffffffffffffffffffffffffffffffffffffff16021790555060018201816001019080546001816001161561010002031660029004610de59291906123a7565b5060028201816002019080546001816001161561010002031660029004610e0d9291906123a7565b506003820154816003015560048201816004019080546001816001161561010002031660029004610e3f9291906123a7565b50600582015481600501556006820160009054906101000a900473ffffffffffffffffffffffffffffffffffffffff168160060160006101000a81548173ffffffffffffffffffffffffffffffffffffffff021916908373ffffffffffffffffffffffffffffffffffffffff1602179055509050508060000160008154809291906001019190505550600060026000600860060160009054906101000a900473ffffffffffffffffffffffffffffffffffffffff1673ffffffffffffffffffffffffffffffffffffffff1673ffffffffffffffffffffffffffffffffffffffff16815260200190815260200160002090506008816001016000836000015481526020019081526020016000206000820160009054906101000a900473ffffffffffffffffffffffffffffffffffffffff168160000160006101000a81548173ffffffffffffffffffffffffffffffffffffffff021916908373ffffffffffffffffffffffffffffffffffffffff16021790555060018201816001019080546001816001161561010002031660029004610fd99291906123a7565b50600282018160020190805460018160011615610100020316600290046110019291906123a7565b5060038201548160030155600482018160040190805460018160011615610100020316600290046110339291906123a7565b50600582015481600501556006820160009054906101000a900473ffffffffffffffffffffffffffffffffffffffff168160060160006101000a81548173ffffffffffffffffffffffffffffffffffffffff021916908373ffffffffffffffffffffffffffffffffffffffff1602179055509050508060000160008154809291906001019190505550600860060160009054906101000a900473ffffffffffffffffffffffffffffffffffffffff1673ffffffffffffffffffffffffffffffffffffffff163373ffffffffffffffffffffffffffffffffffffffff167f4c45d9a1ab9646a61f1e9cc76437e87acfd4c2447a8e5a425155b66cd2b4434b8686604051808060200180602001838103835285818151815260200191508051906020019080838360005b8381101561117657808201518184015260208101905061115b565b50505050905090810190601f1680156111a35780820380516001836020036101000a031916815260200191505b50838103825284818151815260200191508051906020019080838360005b838110156111dc5780820151818401526020810190506111c1565b50505050905090810190601f1680156112095780820380516001836020036101000a031916815260200191505b5094505050505060405180910390a350505050505050565b60006060600f60000160009054906101000a900473ffffffffffffffffffffffffffffffffffffffff16600f600101808054806020026020016040519081016040528092919081815260200182805480156112d157602002820191906000526020600020905b8160009054906101000a900473ffffffffffffffffffffffffffffffffffffffff1673ffffffffffffffffffffffffffffffffffffffff1681526020019060010190808311611287575b50505050509050915091509091565b600015156000803373ffffffffffffffffffffffffffffffffffffffff1673ffffffffffffffffffffffffffffffffffffffff16815260200190815260200160002060000160009054906101000a900460ff1615151461133f57600080fd5b600015156001826040518082805190602001908083835b602083106113795780518252602082019150602081019050602083039250611356565b6001836020036101000a038019825116818451168082178552505050505050905001915050908152602001604051809103902060000160009054906101000a900460ff161515146113c957600080fd5b6004600260003373ffffffffffffffffffffffffffffffffffffffff1673ffffffffffffffffffffffffffffffffffffffff168152602001908152602001600020600082015481600001559050506006600360003373ffffffffffffffffffffffffffffffffffffffff1673ffffffffffffffffffffffffffffffffffffffff1681526020019081526020016000206000820154816000015590505060405180606001604052806001151581526020018281526020013373ffffffffffffffffffffffffffffffffffffffff168152506000803373ffffffffffffffffffffffffffffffffffffffff1673ffffffffffffffffffffffffffffffffffffffff16815260200190815260200160002060008201518160000160006101000a81548160ff021916908315150217905550602082015181600101908051906020019061151392919061242e565b5060408201518160020160006101000a81548173ffffffffffffffffffffffffffffffffffffffff021916908373ffffffffffffffffffffffffffffffffffffffff1602179055509050506000803373ffffffffffffffffffffffffffffffffffffffff1673ffffffffffffffffffffffffffffffffffffffff1681526020019081526020016000206001826040518082805190602001908083835b602083106115d257805182526020820191506020810190506020830392506115af565b6001836020036101000a03801982511681845116808217855250505050505090500191505090815260200160405180910390206000820160009054906101000a900460ff168160000160006101000a81548160ff021916908315150217905550600182018160010190805460018160011615610100020316600290046116599291906123a7565b506002820160009054906101000a900473ffffffffffffffffffffffffffffffffffffffff168160020160006101000a81548173ffffffffffffffffffffffffffffffffffffffff021916908373ffffffffffffffffffffffffffffffffffffffff160217905550905050600f6001013390806001815401808255809150509060018203906000526020600020016000909192909190916101000a81548173ffffffffffffffffffffffffffffffffffffffff021916908373ffffffffffffffffffffffffffffffffffffffff160217905550503373ffffffffffffffffffffffffffffffffffffffff167fa88d010628b8e1dd759f599df85ffec5745748aadceba454c8d75075960c7ad8826040518080602001828103825283818151815260200191508051906020019080838360005b838110156117a657808201518184015260208101905061178b565b50505050905090810190601f1680156117d35780820380516001836020036101000a031916815260200191505b509250505060405180910390a250565b60608060006060806000808710156117fa57600080fd5b6000600260003373ffffffffffffffffffffffffffffffffffffffff1673ffffffffffffffffffffffffffffffffffffffff16815260200190815260200160002090506118456124ae565b8160010160008a81526020019081526020016000206040518060e00160405290816000820160009054906101000a900473ffffffffffffffffffffffffffffffffffffffff1673ffffffffffffffffffffffffffffffffffffffff1673ffffffffffffffffffffffffffffffffffffffff168152602001600182018054600181600116156101000203166002900480601f0160208091040260200160405190810160405280929190818152602001828054600181600116156101000203166002900480156119545780601f1061192957610100808354040283529160200191611954565b820191906000526020600020905b81548152906001019060200180831161193757829003601f168201915b50505050508152602001600282018054600181600116156101000203166002900480601f0160208091040260200160405190810160405280929190818152602001828054600181600116156101000203166002900480156119f65780601f106119cb576101008083540402835291602001916119f6565b820191906000526020600020905b8154815290600101906020018083116119d957829003601f168201915b5050505050815260200160038201548152602001600482018054600181600116156101000203166002900480601f016020809104026020016040519081016040528092919081815260200182805460018160011615610100020316600290048015611aa25780601f10611a7757610100808354040283529160200191611aa2565b820191906000526020600020905b815481529060010190602001808311611a8557829003601f168201915b50505050508152602001600582015481526020016006820160009054906101000a900473ffffffffffffffffffffffffffffffffffffffff1673ffffffffffffffffffffffffffffffffffffffff1673ffffffffffffffffffffffffffffffffffffffff16815250509050806040015181608001518260a00151611b298460000151611b9d565b84602001518560600151859550849450819150975097509750975097509750505091939550919395565b6000600260003373ffffffffffffffffffffffffffffffffffffffff1673ffffffffffffffffffffffffffffffffffffffff16815260200190815260200160002060000154905090565b6060600115156000808473ffffffffffffffffffffffffffffffffffffffff1673ffffffffffffffffffffffffffffffffffffffff16815260200190815260200160002060000160009054906101000a900460ff16151514611bfe57600080fd5b6000808373ffffffffffffffffffffffffffffffffffffffff1673ffffffffffffffffffffffffffffffffffffffff1681526020019081526020016000206001018054600181600116156101000203166002900480601f016020809104026020016040519081016040528092919081815260200182805460018160011615610100020316600290048015611cd35780601f10611ca857610100808354040283529160200191611cd3565b820191906000526020600020905b815481529060010190602001808311611cb657829003601f168201915b50505050509050919050565b6060806000606080600080871015611cf657600080fd5b6000600360003373ffffffffffffffffffffffffffffffffffffffff1673ffffffffffffffffffffffffffffffffffffffff1681526020019081526020016000209050611d416124ae565b8160010160008a81526020019081526020016000206040518060e00160405290816000820160009054906101000a900473ffffffffffffffffffffffffffffffffffffffff1673ffffffffffffffffffffffffffffffffffffffff1673ffffffffffffffffffffffffffffffffffffffff168152602001600182018054600181600116156101000203166002900480601f016020809104026020016040519081016040528092919081815260200182805460018160011615610100020316600290048015611e505780601f10611e2557610100808354040283529160200191611e50565b820191906000526020600020905b815481529060010190602001808311611e3357829003601f168201915b50505050508152602001600282018054600181600116156101000203166002900480601f016020809104026020016040519081016040528092919081815260200182805460018160011615610100020316600290048015611ef25780601f10611ec757610100808354040283529160200191611ef2565b820191906000526020600020905b815481529060010190602001808311611ed557829003601f168201915b5050505050815260200160038201548152602001600482018054600181600116156101000203166002900480601f016020809104026020016040519081016040528092919081815260200182805460018160011615610100020316600290048015611f9e5780601f10611f7357610100808354040283529160200191611f9e565b820191906000526020600020905b815481529060010190602001808311611f8157829003601f168201915b50505050508152602001600582015481526020016006820160009054906101000a900473ffffffffffffffffffffffffffffffffffffffff1673ffffffffffffffffffffffffffffffffffffffff1673ffffffffffffffffffffffffffffffffffffffff16815250509050806040015181608001518260a001516120258460c00151611b9d565b84602001518560600151859550849450819150975097509750975097509750505091939550919395565b6000600115156001836040518082805190602001908083835b6020831061208b5780518252602082019150602081019050602083039250612068565b6001836020036101000a038019825116818451168082178552505050505050905001915050908152602001604051809103902060000160009054906101000a900460ff161515146120db57600080fd5b6001826040518082805190602001908083835b6020831061211157805182526020820191506020810190506020830392506120ee565b6001836020036101000a038019825116818451168082178552505050505050905001915050908152602001604051809103902060020160009054906101000a900473ffffffffffffffffffffffffffffffffffffffff169050919050565b6000600115156000803373ffffffffffffffffffffffffffffffffffffffff1673ffffffffffffffffffffffffffffffffffffffff16815260200190815260200160002060000160009054906101000a900460ff161515146121d057600080fd5b600115156001836040518082805190602001908083835b6020831061220a57805182526020820191506020810190506020830392506121e7565b6001836020036101000a038019825116818451168082178552505050505050905001915050908152602001604051809103902060000160009054906101000a900460ff1615151461225a57600080fd5b3373ffffffffffffffffffffffffffffffffffffffff166001836040518082805190602001908083835b602083106122a75780518252602082019150602081019050602083039250612284565b6001836020036101000a038019825116818451168082178552505050505050905001915050908152602001604051809103902060020160009054906101000a900473ffffffffffffffffffffffffffffffffffffffff1673ffffffffffffffffffffffffffffffffffffffff161461231e57600080fd5b60019050919050565b828054600181600116156101000203166002900490600052602060002090601f016020900481019282601f1061236857805160ff1916838001178555612396565b82800160010185558215612396579182015b8281111561239557825182559160200191906001019061237a565b5b5090506123a39190612517565b5090565b828054600181600116156101000203166002900490600052602060002090601f016020900481019282601f106123e0578054855561241d565b8280016001018555821561241d57600052602060002091601f016020900482015b8281111561241c578254825591600101919060010190612401565b5b50905061242a9190612517565b5090565b828054600181600116156101000203166002900490600052602060002090601f016020900481019282601f1061246f57805160ff191683800117855561249d565b8280016001018555821561249d579182015b8281111561249c578251825591602001919060010190612481565b5b5090506124aa9190612517565b5090565b6040518060e00160405280600073ffffffffffffffffffffffffffffffffffffffff1681526020016060815260200160608152602001600081526020016060815260200160008152602001600073ffffffffffffffffffffffffffffffffffffffff1681525090565b61253991905b8082111561253557600081600090555060010161251d565b5090565b9056fea265627a7a72315820ece630c64750ee7c6a1610266a1f0d549137b8a7f6ce781ff17217ff17e6276e64736f6c63430005100032",
  "source": "pragma solidity ^0.5.0;\ncontract DecentMail{\n  event sendMessageEvent(address indexed from, address indexed to,  string _hash,  string _key);\n  event registerUserEvent(address indexed from, string email);\n  struct Message {\n    address sender;\n    string subject;\n    string hash;\n    uint message;\n    string key;\n    uint timestamp;\n    address receiver;\n  }\n  struct ContractProperties {\n    address User;\n    address[] registeredUsersAddress;\n  }\n  struct Inbox {\n    uint numReceivedMessages;\n    mapping (uint => Message) receivedMessages;\n  }\n  struct Sentbox {\n      uint numSentMessages;\n      mapping (uint => Message) sentMessages;\n  }\n  struct Member{\n      bool isRegistered;\n      string email;\n      address user;\n  }\n  mapping (address => Member) mailId;\n  mapping (string => Member) addresses;\n  mapping (address => Inbox) userInboxes;\n  mapping (address => Sentbox) userSentboxes;\n\n  Inbox newInbox;\n  Sentbox newSentbox;\n  Message newMessage;\n  ContractProperties contractProperties;\n\n  function checkRegistration(string memory email) public view returns (bool){\n        require(mailId[msg.sender].isRegistered == true);\n        require(addresses[email].isRegistered == true);\n        require(addresses[email].user == msg.sender);\n        return true;\n    }\n  function getMail(address user) public view returns (string memory){\n      require(mailId[user].isRegistered == true);\n      return mailId[user].email;\n  }\n  function getAddress(string memory email) public view returns (address){\n      require(addresses[email].isRegistered == true);\n      return addresses[email].user;\n  }\n  function registerUser(string memory email) public{\n      require(mailId[msg.sender].isRegistered == false);\n      require(addresses[email].isRegistered == false);\n \n      userInboxes[msg.sender] = newInbox;\n      userSentboxes[msg.sender] = newSentbox;\n      mailId[msg.sender]  = Member(true, email, msg.sender);\n      addresses[email] = mailId[msg.sender];\n      contractProperties.registeredUsersAddress.push(msg.sender);\n     \n      emit registerUserEvent(msg.sender, email);\n  }\n  function getContractProperties() public view returns (address, address[] memory ) {\n    return (contractProperties.User, contractProperties.registeredUsersAddress);\n  }\n  function sendMessage(string memory  _receiver,  string memory _subject, uint _message, string memory  _hash,  string memory _key) public {\n    require(addresses[_receiver].isRegistered == true);\n    newMessage.hash = _hash;\n    newMessage.key = _key;\n    newMessage.message = _message;\n    newMessage.timestamp = now;\n    newMessage.sender = msg.sender;\n    newMessage.receiver = getAddress(_receiver);\n    newMessage.subject = _subject;\n    Sentbox storage sendermessages = userSentboxes[msg.sender];\n    sendermessages.sentMessages[sendermessages.numSentMessages] = newMessage;\n    sendermessages.numSentMessages++;\n    Inbox storage receiversInbox = userInboxes[newMessage.receiver];\n    receiversInbox.receivedMessages[receiversInbox.numReceivedMessages] = newMessage;\n    receiversInbox.numReceivedMessages++;\n    \n    emit sendMessageEvent(msg.sender, newMessage.receiver, _hash, _key);\n  }\n  function receiveMessages(uint index) public view returns ( string memory,  string memory, uint, string memory, string memory, uint) {\n    require (index >= 0);\n    Inbox storage receiversInbox = userInboxes[msg.sender];\n    Message memory message = receiversInbox.receivedMessages[index];\n    return (message.hash, message.key, message.timestamp, getMail(message.sender), message.subject, message.message);\n  }\n  function sentMessages(uint index) public view returns ( string memory, string memory, uint, string memory, string memory, uint) {\n    require(index >= 0);\n    Sentbox storage sendermessages = userSentboxes[msg.sender];\n    Message memory message = sendermessages.sentMessages[index];\n    return (message.hash, message.key, message.timestamp, getMail(message.receiver), message.subject, message.message);\n  }\n  function getMyInboxSize() public view returns (uint) {\n    return ( userInboxes[msg.sender].numReceivedMessages);\n  }\n  function getMySentSize() public view returns (uint) {\n    return ( userSentboxes[msg.sender].numSentMessages);\n  }\n}",
  "sourcePath": "/home/ankita/Documents/Decentmail/contracts/DecentMail.sol",
  "compiler": {
    "name": "solc",
    "version": "0.5.16+commit.9c3226ce.Emscripten.clang"
  },
  "schemaVersion": "3.3.4",
  "updatedAt": "2021-05-25T08:17:46.285Z",
  "networkType": "ethereum",
  "devdoc": {
    "methods": {}
  },
  "userdoc": {
    "methods": {}
  }
}